:100000004EC868C8DCCC66C865C88FCC63C862C8F7
:1000100061C860C85FC85EC85DC85CC85BC80200D4
:10002000E2CD0A2A2A20576F7A4D6F6E002B3011CD
:10003000DF01F62B32CD60E652355322E3322B340A
:1000400011000790272B341100082B362134E9E9E1
:10005000993499362B3611E1042B22212A2B2421A5
:10006000322B28ECFEE3062B3259052B3421367F48
:10007000005E26B4CB933693282134E601354D48F3
:10008000EEFEFF2B38CDAD1A32353FAC11E1042B1B
:10009000221100085E32993235537B1100082B3251
:1000A0002B285E26B4CB93281A288CA03572811198
:1000B000EE012B342134ADE67835539D8C80909F32
:1000C0008C08F0342134E6022B348CFE357291FF1B
:1000D0002B3ACDD9752B301152062B222130B4F595
:1000E000E60A3550C4E307E33ACF382130820FE601
:1000F0000A3550D3E307E33ACF3863FF2B3C1100B6
:1001000003CF180300F3CDD37559802B3ECF3A931C
:100110003E213EAD353FD1E62E35500735721D5993
:10012000012B409007E60C357228E6012B40900722
:10013000E618357231CF42900759002B302B44E935
:10014000E9E9E92B34213EAD933EE630355068E6CF
:100150000A3553542B30E30A99349035E606821F52
:10016000355668E6073553682B30E31099349035DF
:100170002130353FCD213EE6022B3E2140355384D0
:100180002144F0462146E3012B469007357291CF7A
:100190003A21442B46E6012B422142B8443553C74D
:1001A0002142E3012B4282073572A5CF3A1A32353C
:1001B00072BA59025E321A43CF3C1A42CF3C593AC6
:1001C000CF382132E3042B322142ADCF3C909159FC
:1001D000002B409007595CCF3863FF2B48933211B6
:1001E000200F2B2A5E24CF3A592ACF382130AD93E5
:1001F000303572E2110004CF1804007259812B3E91
:10020000CF3A597F5E2BCF382B321A0F2B301A0F73
:10021000F03EFC3035721E213EAD900E213EAD8C7D
:100220000A353F608C753572425920CF382B321A0F
:1002300032E6063550405E32213EE6012B3E900408
:10024000E6603553041A328C96357257595CCF38B4
:10025000110004CF18213EADCF38933E9004F03EFC
:100260002B405920CF38590F5E2BCF4890FE00020B
:10027000000200CF11DF01F62B30CDB275CF323541
:100280005010CF3463FFCF362800353F1BCF389056
:10029000A7CF367065656B2800353F2DCF38AD2B65
:1002A0003A90A7CF36726E642800353F4BCF381195
:1002B000A7042B22B4FD35503ECF3C213E2B3A9073
:1002C000A7CF367573722800353F5DCF38CF3A2BF4
:1002D0003A90A7CF402B42CF34CF362800353FA0ED
:1002E000752142EC00CF38355376CF44EE002B42D7
:1002F000631A43B83AE6025E432146FC4235538E08
:10030000214690922142B846355397CF44CF3629A3
:10031000003572A0CF482142F62B3A63FFCF362931
:10032000003572B0CF4863FF2B4ACDC8211A2B4C41
:10033000214CAD934C353FC6CF4E90BACF4C2B508D
:10034000931BFF0300F5CD6E2B42E67F354D6D1AF2
:1003500031E678354D6D1A30E69B35561975CF521A
:10036000632142E652355329E3322B3E11000790B8
:100370002E2B3E1100082B42213E35506DE9E999A4
:100380003E99422B4211E1042B22212A2B242130B9
:100390002B28ECFEE3062B3059052B3E21427F0033
:1003A0005E26B4CB93429328213EE601354D525E42
:1003B00026B4CBEEFEFF2B4ECDF0752B4C11A018C2
:1003C0002B54214CF35459A25E54597FCF4E2B30FD
:1003D0001A0F2B4C1A0FF054FC4C35729A2154AD65
:1003E000908A2154AD8C0A353FDD8C753572BE592B
:1003F00020CF4E2B301A30E6063550BC5E302154EB
:10040000E6012B549082E6603553821A30E6963529
:1004100050D459A25E54595CCF4E90822154ADCF36
:100420004E93549082F0545920CF4ECF5259A25E31
:1004300054CF342154AD63FF931BFF0400DD2B56D2
:10044000CDD4CF34CF36676F746F00353F12CF38BD
:10045000CF58CF36676F73756200353F26CF38753A
:100460002154EC00CF58CF3672657475726E00352A
:100470003F3F1A1C357239CF5AF62B5463CF5CCFED
:1004800036696600353F96CF38DFFCEC02CF5E352B
:100490007254CF48EC00CF38CF367468656E00EEEA
:1004A00002FC3A35536AEE02906EEE02B83A3556C7
:1004B000735904355378590135727D59022B3EEE3C
:1004C00000F83EDF04353F8ACF602154AD353F94BC
:1004D0009354908ACF5CCF36706F6B6500353FB315
:1004E000CF382B62CF362C003572ADCF48CF38F0E5
:1004F00062CF5CCF3672656D003572C0CF36270093
:10050000353FCF2154AD353FCD935490C3CF5C11CF
:100510000005CF182B60931B931BFF0500F1CF360E
:100520006E65787400353F37CF402B62752154ECEF
:10053000001100FF9962F635721CCF442B54CF385E
:100540002162F6E301F362B83A355632EE002B54DD
:10055000CF3463CF64CF5CCF36666F7200353F6CAB
:10056000CF402B62CF34CF363D0035724FCF48CFCE
:1005700038F362CF36746F0035725DCF481100FFDB
:1005800099622B662154F366CF38CF5CCF36617405
:1005900000353F9ACF3835537BCF445E30CF362C71
:1005A00000353F98CF3835538BCF44E6783550929D
:1005B000CF44E3F8E9AD5E31CF5CCF36707574009F
:1005C000353FA9CF38CF4ECF5CCF3664726177000C
:1005D000353FB5CF48CF367072696E74003572C43E
:1005E000CF363F00353FCC11A013CF18CF366D6FFB
:1005F000646500353FEACF381A21E6203550E8110E
:10060000000B2B22213AB4E6CF5C11A014CF1806C0
:1006100000E2CDB775CF323556B521462B3E2B665D
:10062000FC68353F162146CF6AF6B83A35505A2154
:10063000682B3E213EF6B83A35532D213ECF6C90C3
:100640001D35565A2100FC46353F5821662B42CFB6
:100650006A2B662B4C214CADF042934C9342214CBB
:10066000821F3572412166FC3E3572375901353F94
:100670006C2100FC46357266CF482146CF6C2B4674
:100680002154AD353F86213AF33E933E933E2154AB
:10069000AD9354F03E35727890B3213E2B66FC4604
:1006A000353FAD2166CF6C2B662B4C214CADF03E17
:1006B000934C933E214C821F35729721662B3E90BE
:1006C0008A2146CF6A2B46213A63FF2B6E113F35B4
:1006D0002B2A5E2411A0172B52CF18CF502A2A2A7A
:1006E0002054696E7920424153494300CF5211A0F2
:1006F000082B1AFF08A05FCDB6881FE3012B4C35ED
:1007000056B382E03572B3214CE3A0FF214CFF2B9E
:100710006CCDCEE6202B4C3550CB82603572CB2190
:100720004CE6A0FF214CFF2B6ACDFA21682B3EFC42
:1007300046353FF3213EF6FC3A3572ED213EE302A9
:100740002B54CF64CF60213ECF6C90D4CF704C69D6
:100750006E6500931BFF09A05E2B58CDDE753553E7
:10076000B05900B83A2B3A592DCF4E59002B42219F
:100770003A3553C411D08A993A2B3A59032B421176
:100780001027CF7211E803CF725964CF72590ACF84
:10079000725930993ACF4E63FF2B74CDEACF705324
:1007A0007461636B002B5ACDF7CF7053796E74610F
:1007B00078002B48931BFF0AA05FCDD2211A2B4C47
:1007C00021542B66214CAD934C353FCE2B3E21540A
:1007D000AD8820FC3E3572C0935490A821662B54FE
:1007E000214CAD934C3572C4CF4CCF34CF4C2B360B
:1007F000CDFA1100802B3AE9E9993AE92B3E2154D0
:10080000ADE6303550F7E60A3553F7E30A993E93E3
:100810005490D9213AFF931BFF0BA05F2B32CDD10F
:100820002154AD353FB38C3A3572B19354CF60CF7C
:10083000482154CF6C2B54FC46353FCE11C018FCD8
:1008400054353FCE2154E3022B54CF60CF70002BA0
:100850005CCDFA21462B3E5900F33E933E933E1A5F
:100860003E3572D92100FC3E353FF411CA01993E54
:1008700090D711C0182B68FF931BFF0CA0602B763C
:10088000CDED751A1CE68D3553ACCF5ACF362D0001
:10089000353FBBCF785900B83A90C1CF362B00CF47
:1008A0007875EC00CF362B00353FD5CF78EE009928
:1008B0003AEC0090C4CF362D00353FE6CF78EE00FD
:1008C000B83AEC0090C4EE002B3A6363FF2B38CDAE
:1008D000F9CF7056616C7565002B44931BFF0DA01A
:1008E0005FCDE475CF4A75213AEC00CF362A00354A
:1008F0003FB9CF4AEE00CF7AEC0090A8CF362F0058
:10090000353FCACF4AEE00CF3CEC0090A8CF362549
:1009100000353FDDCF4AEE00CF3C213EEC0090A8F1
:10092000EE002B3A6363FF2B78CDF81A0F8C7F35DE
:1009300072F7CF70427265616B00FF2B64931BFFEF
:100940000EA060CDFB2B66FC3A2B4221663553B1DD
:100950005900B8662B66213A3553BC5900B83A2B7A
:100960003A3572C1CF4459002B3E2B4C213E993E63
:100970002B3E21663553D4933E216699662B662122
:100980003EB83A3550E52B3E9366214CE301820F89
:100990003572C521423553F85900B866FF2166FF0C
:1009A000931BFF0FA05C2B3CCDC72B4C59002B6633
:1009B00059012B3EF84C353FB72166993A2B6621F9
:1009C0003A993A2B3A213E993E3572AA2166FF2B7D
:1009D0007ACDE621002B3E2154AD825FE6403550B2
:1009E000E4E61B3553E49354E9993EFFCF482B408E
:1009F000CDF72154AD8C203572F6935490EAFF93D5
:100A00001BFF10A05B2B34CDF47521682B66FC46D0
:100A1000353FCBCF642166F62B3ACF74936693664D
:100A20002166AD353FC3CF4E90B7CF522166CF6C14
:100A300090A52B3A2100FC66353FE02166CF6C2B58
:100A400066213AE32090CBCF74CF50206279746551
:100A500073206672656500CF5263FF2B7C931BFF8A
:100A600011A060CDBF752B3E213AB83E3550B02B5A
:100A70003A934290A52142353FBD8830CF4E593040
:100A80002B4263FF2B72CDEF7559002B42CF363CC2
:100A900000353FD19342CF363E00353FDE2142E361
:100AA000042B42CF363D00353FEB2142E3022B427F
:100AB000214263FF2B5E11A018F62B46E3022B5454
:100AC000931BFF12A05DCDF7211A2B4C1A30E602C2
:100AD0003556ADCF5259005E1C214CAD353FE35920
:100AE0003FCF4E214CAD934C3572B9CF502065723B
:100AF000726F7200E620F854E300F6353FE12B3ABE
:100B0000CF5020696E2000CF74CF52CF504F6B0072
:100B1000CF525900CF56353FEACF6E354DEA112BF3
:100B200070CF6013A0572154AD353FF18C3A353F5B
:100B3000F12154AD353FEF8C3A353FEF8C183572CB
:100B4000CE9354CF3622003572CC2154AD353FCCF4
:100B5000CF4E90B990D2CF38CF74CF362C00353FDE
:100B6000E65920CF4E1A3082073572D990A9CF3678
:100B70003B003572A9CF5290F3CF52CF5C14A05DE9
:100B8000CF36696E70757400353FE42154AD353F42
:100B9000B1CF4ECF402B62CF34DFFC2154EC028822
:100BA0001FE61FF6EC00593FCF4ECF52EE00CF5656
:100BB000353FC4CF38F362EE022B54DF04CF362C1E
:100BC000003572A9CF5CCF366E657700353FF6CF22
:100BD000762B46CF7CCF700011A015CF1815A05CE6
:100BE000CF36636C7300353FCB110001AD5E3159D8
:100BF0000E2B66CF522166E601354DAFCF52110064
:100C000001AD8C08354DBA59085E31CF5CCF366CDA
:100C100069737400353FD9CF7CCF5CCF3672756E67
:100C200000353FE9CF76F62B3ACF58CF36656E6464
:100C300000353FF5CF700011A016CF1816A04ECF8B
:100C4000366C657400CF402B62CF34CF3628003528
:100C50003FDDCF383553B8CF441A63B83AE6025E69
:100C6000632146FC623553CB214690CF2162B846C2
:100C70003553D4CF44CF3629003572DDCF48CF3637
:100C80003D003572E6CF48CF38F362CF5C17A05AEB
:100C900011E1042B2259005E305E261A31E30882EE
:100CA000783572B459085E3121302B28B4CB9328A3
:100CB000B4CB93281A288CA03572BA11EE012B3EC2
:100CC00088FFF6B8301A193572F3213EADE6783553
:100CD00053E48C8090E68C08F03E213EE6022B3EE9
:100CE0008CFE3572D893309330FF18A006A0184EB2
:100CF0004557005B86061100022B1AFF005B860039
:100D000000A00318605F7DF42B8948AB2A0003D153
:100D100001C0458A28C41140048410200088083E80
:100D20003EE127A94EAA569F70B276B73E984EBFB5
:100D30007EBE764001400551114A294445B8423DE6
:100D40003A8F3EAA7E313A2E7EB17E907E373E9F0C
:100D50007CF1473E0A9B7C217C9F7DDF7D3F7E4C62
:100D60007E6F3ACD7EB226F0433F7C3E78DF7C9B9F
:100D70006CFC70B94EF1038220E047082221040088
:100D8000412F1D267D29193F196D19F411BEB20797
:100D90007DE1162E898B7CE147CF3D073D26194C1E
:100DA000FE5FB2883CEA15E9232F386E38EF3CC964
:100DB00024BEE06D25F113E003E4471023FF7FFF1D
:100DC0000D09FF5A0AFF761BFF2920771621084AD2
:100DD00021761E22082622415222412623A82623BC
:100DE000905223065D238C5D23772524085B2477AE
:100DF0002E25485225081626743626433D260825FA
:100E000027304E27035227045527445D27082E28F4
:100E1000743E28434628434529744629084E2943F1
:100E20003E2A745B2A085D2AFF7C2A4B552B345BD3
:100E30002BFF792B083A2C37412C08362D344A2DBC
:100E4000034E2DFF7B2D48412E37492EFF712E7406
:100E50003D2F48492F034A2F374530484530FF7012
:100E600030371631481631FF6931371E32481E328D
:100E7000FF7232372633482633FF7A33372534481A
:100E80002534FF6B34372E35482E35FF7335373612
:100E900036483636FF7436373D37483D37FF6C37B6
:100EA000373E38483E38FF7538374639484639FFAF
:100EB0007D3908493A74493A434C3A08413B7441F8
:100EC0003B034C3B43413C3C613C74453D0B553D31
:100ED00043493E7C613E483A3F434A3F744E3F8C13
:100EE0001540411E40A01E40884540904C40425253
:100EF00040481541771C417F32427F21437F234484
:100F00007F24457F2B467F34477F33487F43497F8B
:100F10003B4A7F424B7F4B4C773A4D484C4D7F319B
:100F20004E7F444F7F4D50771551481C517F2D52B5
:100F30007F1B537F2C547F3C557F2A56481A577786
:100F40001D577F2258441A597B3559731A5A481D28
:100F50005A44355A882E5B943E5B03545BB0545B15
:100F6000100E5CA00E5C883E5C844E5C015D5C02F1
:100F7000615C94465D884E5D035B5DB05B5D040E15
:100F80005E43365E88465E08545E60545E50555E31
:100F9000083E5F744A5F434E5F030E60883D609079
:100FA0004E60205460445560081561371C613F3223
:100FB000623F21633F23643F24653F2B663F3467D4
:100FC0003F33683F43693F3B6A3F426B3F4B6C375F
:100FD0003A6D084C6D3F316E3F446F3F4D70371591
:100FE00071081C713F2D723F1B733F2C743F3C7581
:100FF0003F2A76081A77371D773F2278041A793B03
:101000003579331A7A081D7A04357A88257B943D20
:101010007BA0527B43547B500E7CA0167C88367C90
:10102000415D7C42617CAC617C94457D88567D430A
:101030005B7DA05D7D410E7E881E7EA0257E905545
:101040007E845B7E425D7EFF667FFF05C1FF06C238
:10105000FF04C3FF0CC4FF03C5FF0BC6FF83C7FF1C
:101060000AC8FF01C9FF09CAFF78CBFF07CC0000FF
:101070000000360001020000040000000000000033
:1010800000003800000000003700020202020202E5
:101090000202020201020408102020041008112498
:1010A0001FBECFE5D2E0DEBFCDBF10E0A0E6B0E0CE
:1010B000E0E7FEE102C005900D92A03DB107D9F72F
:1010C00022E0A0EDB0E001C01D92A030B207E1F730
:1010D0003CD5CCC695C7823081F018F4813051F0F0
:1010E0000895833019F0843009F008958CB58F7D10
:1010F0008CBD08958AB58F7702C08AB58F7D8ABD71
:101100000895CF93DF9390E0FC01EC56FF4E2491BD
:10111000FC01E657FF4E8491882361F190E0880F2F
:10112000991FFC01EC57FF4EC591D491FC01E25888
:10113000FF4EA591B491611109C09FB7F8948881C1
:10114000209582238883EC912E230BC0623061F4BA
:101150009FB7F8943881822F809583238883EC9100
:101160002E2B2C939FBF06C08FB7F894E8812E2BAF
:1011700028838FBFDF91CF9108953FB7F894809176
:10118000F6009091F700A091F800B091F90022B715
:1011900008B601FE05C02F3F19F00196A11DB11D33
:1011A0003FBFBA2FA92F982F8827820F911DA11D0D
:1011B000B11DBC01CD0143E0660F771F881F991F49
:1011C0004A95D1F708958F929F92AF92BF92CF9296
:1011D000DF92EF92FF926B017C01CFDF4B015C014C
:1011E000C114D104E104F104E9F0C7DFDC01CB0153
:1011F00088199909AA09BB09883E9340A105B10540
:1012000078F321E0C21AD108E108F10888EE880ECF
:1012100083E0981EA11CB11CC114D104E104F104A7
:1012200021F7DECFFF90EF90DF90CF90BF90AF908F
:101230009F908F900895CF93DF93E8E7F0E184913A
:10124000E8E9F0E1D491EEE8F0E1C491CC2391F02B
:10125000811141DFEC2FF0E0EE0FFF1FE258FF4E4F
:10126000A591B4918FB7F8949C91ED2FE095E92367
:10127000EC938FBF61E084E0DF91CF9142CF62E0D9
:1012800084E03FDF8BE08093D6000895615091E0C9
:1012900001C0990F6A95EAF79923E1F02091FE01C8
:1012A000392F382319F038B3232B03C038B32095D6
:1012B000232328BB4091FB0026B32423E9F750E009
:1012C00026B330E02095309524233523232BC1F716
:1012D0009695E2CF9091FF01890F8093FF010895C9
:1012E0004091FC0050E026B330E020953095242357
:1012F0003523232BC1F79091FE0128B387FF02C04D
:10130000922B02C09095922398BB2091FC0096B33B
:101310009223E9F74091FB0096B39423E9F750E05C
:1013200026B330E02095309524233523232BC1F7B5
:1013300067E0ACCFEF92FF920F931F93CF93DF93B1
:1013400000D01F92CDB7DEB7182F062F8CE44A834A
:101350005B837983C5DF66E0812F98DF68E0802FAB
:1013600095DF68E07981872F91DF4A81E42E5B81E8
:10137000F52E8701045C1F4F68E0F70181917F0122
:1013800085DFE016F106C1F71091FF01119568E0C5
:10139000812F7CDF1093FF0198B38091FE01892B90
:1013A00088BB0F900F900F90DF91CF911F910F91FD
:1013B000FF90EF900895CF92DF92EF92FF920F93FC
:1013C0001F93CF93DF936C017B0187E68093FF012E
:1013D00032DFF894C0E0D0E0CE15DF059CF4870141
:1013E0000C1B1D0B0D33110514F00CE310E0AE01C6
:1013F00043505F4FBE016C0D7D1D802F9BDFC00FE2
:10140000D11DEACF78943BDF9091FC0086B389230D
:10141000E9F7DF91CF911F910F91FF90EF90DF904F
:10142000CF9008955F926F927F928F929F92AF922A
:10143000BF92CF92DF92EF92FF920F931F93CF93C1
:10144000DF936C017B01EC018C011A5FB0E29B2EF3
:101450008EE2582E9DEF692E90E0792E74E0812C5B
:10146000482D440F440F5701A80CB11CD501EC9135
:10147000EE2309F45BC0EE0FFF0BE154F34FA5918F
:10148000B4919D0150E06DEF670F8EEF870F9FEFD6
:10149000970FB7FD21C0DA01A350BF4F1C92E62F72
:1014A000F0E0E350FF4F432F45954E734083E82F04
:1014B000F0E0E350FF4FA90164E0559547956A9528
:1014C000E1F74E734083E92FF0E0E350FF4F220F26
:1014D000331F2E73208327C043505F4FFA011082C1
:1014E000E62FF0E0E350FF4F432F459545954F71B0
:1014F0004083E82FF0E0E350FF4F85E035952795D6
:101500008A95E1F72F712083E92FF0E0E350FF4F38
:10151000AF71A083D5018C918A3629F4E72FF0E0D2
:10152000E450FF4F508283947C5F9ACFEDEFF0E060
:101530008E2F8619841740F48081892111F480E26E
:1015400001C08FE38193F4CFA42EB12CB501CE015D
:1015500032DFD3959694C017D10709F07FCFC5012C
:101560008C0D9D1DDF91CF911F910F91FF90EF90FA
:10157000DF90CF90BF90AF909F908F907F906F90B3
:101580005F9008951F93CF93DF93182FEB0180E0B6
:1015900090E045D4282F30E0263031050CF080E073
:1015A000A1E0B0E002C0AA0FBB1F8A95E2F76FEB83
:1015B0007DE040E050E0FB019491292F30E0209540
:1015C00030952A233B23232BA9F4907C903C11F0E7
:1015D000911310C0FB013196249130E02C173D0788
:1015E00049F4CA0163E070E030D48F53924FFC019C
:1015F000849108C04F5F5F4F6D5F7F4F453E51053F
:10160000D1F680E0DF91CF911F910895EF92FF9284
:101610000F931F93CF93DF938FB7F8940091F2004D
:101620001091F3002091F4003091F5008FBFC0912C
:10163000E900D091EA009091E8008091E7009817C6
:1016400079F0E091E700F0E0E952FF4F40818091AE
:10165000E70090E001968F7099278093E70001C022
:1016600040E0642F70E061157105D9F5D093EA0070
:10167000C093E9008091EF009091F0008F3E9105BA
:1016800029F484EC99E0A0E0B0E004C083E290E0AB
:10169000A0E0B0E04091EB005091EC006091ED00D3
:1016A0007091EE00041B150B260B370B801791076A
:1016B000A207B30784F41092F0001092EF00093EE5
:1016C0001340210531050CF46FC08091E900909121
:1016D000EA0088275EC0093E134021053105ACF7BA
:1016E0005CC0403E21F0403F21F4D064A4CFD068DC
:1016F000A2CFD7FD706E6431710509F4E6C050F4D5
:101700006131710509F4DEC062317105B9F480E020
:1017100091E0DDC0613180EE780751F0643180EEF8
:10172000780749F06935710549F480E092E0CFC04F
:1017300080E090E2CCC080E098E0C9C0D093EA009D
:10174000C093E9000093EB001093EC002093ED00B0
:101750003093EE00603780EE7807D1F148F16437BE
:1017600080EE780709F087C081E090E0D6FFD3C013
:1017700080959095C823D923D093EA00C093E900BF
:101780001092F0001092EF008091E9009091EA0031
:101790009F739093EA008093E9008091EF0090910D
:1017A000F000009709F0BAC08091E9008095B6C0BA
:1017B0006A3580EE780709F483C060F06B3680EEFE
:1017C000780709F47BC06C3680EE780709F04DC0CD
:1017D00080E4CBCF6636710571F4CE0188279C700A
:1017E000892B09F494C0CE0188279073892B09F4C2
:1017F0008EC01FEE7AC06A3480EE780709F474C098
:101800007E01EE248CE0F822D5FD05C0E114F10440
:1018100021F0D4FF02C080E808C0CE018827937071
:10182000892B11F080E401C080E0ACDE182FEF2896
:1018300009F45BC0803209F46CC08F3309F452C0E4
:101840008FE3810F8C3078F4612F6F7061F0CC27BB
:10185000D073CD2B29F0615080E090E0E8D245C0F4
:1018600080E4182742C01F7140C0693680EE7807B7
:1018700009F44DC0C5CF653780EE780760F4613755
:1018800080EE780709F4A9CF623780EE780709F077
:10189000B7CF84E06ACF6A3780EE780711F480E230
:1018A00064CF6D3780EE780711F480E15ECF653745
:1018B00080EE780709F0A4CF88E057CF82E055CFBB
:1018C0001AE013C080E090E102C080E094E0D6FF0F
:1018D00005C080959095C823D92302C0C82BD92B69
:1018E000DF73A9CE1FE701C01FE22091E90030910C
:1018F000EA0036FD06C0812F90E09093F0008093BF
:10190000EF0022273093EA002093E9003DCF80E8E2
:101910002CCF8FEF2ACFC82BD92B2ECFDF91CF9191
:101920001F910F91FF90EF9008951F920F920FB6A5
:101930000F9211242F933F938F939F93AF93BF9355
:101940008091F2009091F300A091F400B091F50025
:101950003091F10026E0230F2D3720F40296A11DCF
:10196000B11D05C029E8230F0396A11DB11D2093C9
:10197000F1008093F2009093F300A093F400B093F1
:10198000F5008091F6009091F700A091F800B091D9
:10199000F9000196A11DB11D8093F6009093F70008
:1019A000A093F800B093F900BF91AF919F918F91F0
:1019B0003F912F910F900FBE0F901F9018951F927F
:1019C0000F920FB60F921124CF92DF92EF92FF92F7
:1019D0000F931F932F933F934F935F936F937F9337
:1019E0008F939F93AF93BF93CF93DF93EF93FF9327
:1019F00086B390E0809590952091FA0030E08223A4
:101A00009323892B09F488C0E7E7F0E18491E7E9A3
:101A1000F0E1D491EDE8F0E1C491CC2399F081118B
:101A20005ADBEC2FF0E0EE0FFF1FE259FF4EA591BD
:101A3000B491EC91ED2331E020E009F430E0832F04
:101A4000922F02C080E090E02FB7F8944091F2000E
:101A50005091F3006091F4007091F5002FBF009158
:101A6000D2001091D3002091D4003091D5006A01AA
:101A70007B01C01AD10AE20AF30A970186010630F7
:101A800011052105310524F42091D6002B3040F0BA
:101A900021E030E03093D1002093D0001092D600A6
:101AA0004093D2005093D3006093D4007093D5003C
:101AB0004091D600BC01042E02C0660F771F0A9425
:101AC000E2F72091D0003091D100262B372B8227CE
:101AD00093279093D1008093D0004A30B1F4E091E5
:101AE000E800F0E0E952FF4F9C01359527952083EF
:101AF0002091E80030E02F5F3F4F2F703327509147
:101B0000E700521711F080FD04C04F5F4093D600EC
:101B100003C02093E800F9CFFF91EF91DF91CF91BF
:101B2000BF91AF919F918F917F916F915F914F91F5
:101B30003F912F911F910F91FF90EF90DF90CF90E9
:101B40000F900FBE0F901F901895CF93DF93CDB7D6
:101B5000DEB763970FB6F894DEBF0FBECDBF7894A3
:101B60008AB582608ABD8AB581608ABD83B782608A
:101B700083BF83B7816083BF89B7826089BF80B725
:101B8000826080BF80B7816080BF329A319A30987E
:101B9000379A8CB580648CBD84E08093FE0182E02E
:101BA0008093FC0081E08093FB00C29A8091FE014B
:101BB00087BB6EE571E080E090E005DB62E083E0EA
:101BC000A0DA5DDBE8E9F0E1E491E093FA008BB79D
:101BD00080628BBF95B38091FA00892B85BBF0E4BE
:101BE000CF2EA0E0EA2EA0E0FA2EE7E6BE2E23DB01
:101BF000F8942091FC00822F90E006B310E000954D
:101C000010950823192301151105B9F786B382230E
:101C1000E9F73091FB00D12C432F50E086B38323AA
:101C2000E9F786B3822351F486B390E080959095CE
:101C300084239523892BC1F7D394F0CF78941FDBAD
:101C40008091FD01D812D092FD016FE070E080E03C
:101C500090E0B9DADBDCD82E2FEF821709F4D9C077
:101C6000E82FEC258FE38E0F8C3008F0B9C0EF70B1
:101C700009F4B6C0E13009F058C083E1ECEBF0E0C4
:101C8000DE01119601900D928A95E1F7BE016F5F1A
:101C90007F4F80E098E0C6DB88271A8670E2972E97
:101CA000988622E32F83BE016F5F7F4F9A5FBADB76
:101CB0006AE770E0B7DB8827988623E32F83BE01AD
:101CC0006F5F7F4F9A5FAEDB65E870E0ABDB882724
:101CD0006CE870E09A5FA6DB4C0180E090E09FD05A
:101CE000282F30E0263031050CF48901C80163E06B
:101CF00070E0ABD0BC01605A7F4FC40193DB65E953
:101D000070E090DB882761EB70E09A5F8BDB00E688
:101D100010E063E970E086DBB80184DB0D5F1F4FE4
:101D200040E002371407A9F75BC0E43008F058C060
:101D3000F0E0EE0FFF1FEE0FFF1FE659FF4F01907F
:101D4000F081E02D9F012F5F3F4F849190E0F901DA
:101D50004491982F8827840F911D4901F2E08F0E3E
:101D6000911CF9013196249130E02115310511F4CF
:101D700020E031E0ADEFB0E060E070E0F401E60FAC
:101D8000F71FE491ED936F5F7F4F62177307B1F711
:101D9000860E971E9B01280F311D2130314000F522
:101DA0000ADB94012F5F3F4FF401849190E000978C
:101DB00071F6F90104913196E49110E0102F00279B
:101DC0000E0F111D0115110559F035DAF894B09276
:101DD000FF014DEE51E0B80180E0ACDA78944FDAC3
:101DE0008D2D8C259FE3980F9C3010F48F7031F46B
:101DF00022DAF8948D2D74DA789441DAFFEFDF1649
:101E000041F06FE070E080E090E0DDD9FFDBD82E9C
:101E1000E7CFE114F10409F4EACEF2D0E6CEE1997D
:101E2000FECF9FBB8EBBE09A99278DB30895262FD6
:101E3000E199FECF1CBA9FBB8EBB2DBB0FB6F894A9
:101E4000E29AE19A0FBE019608950024552704C036
:101E5000080E591F880F991F009729F076956795EE
:101E6000B8F37105B9F7802D952F0895F894FFCF39
:101E7000555300474200444500465200495400452E
:101E8000530071027A001E00850054696E79204269
:101E90004153494300576F7A4D6F6E004B65796D22
:101EA00061703A200020284368616E676520776979
:101EB0007468204374726C2D416C742D46787829B7
:101EC00000417661696C61626C653A004374726CC2
:101ED0002D46312020546869732068656C700000BD
:00000001FF
