:10000000D2C7ECC75ACCEAC7E9C70DCCE7C7E6C7E9
:10001000E5C7E4C7E3C7E2C7E1C7E0C7DFC702003F
:10002000E711DF01F62B30CDB275CF32355010CF4E
:100030003463FFCF362800353F1BCF3890A7CF362B
:100040007065656B2800353F2DCF38AD2B3A90A7F2
:10005000CF36726E642800353F4BCF3811A7042B82
:1000600022B4FD35503ECF3C213E2B3A90A7CF36EF
:100070007573722800353F5DCF38CF3A2B3A90A781
:10008000CF402B42CF34CF362800353FA0752142D8
:10009000EC00CF38355376CF44EE002B42631A4341
:1000A000B83AE6025E432146FC4235538E21469023
:1000B000922142B846355397CF44CF362900357246
:1000C000A0CF482142F62B3A63FFCF362900357284
:1000D000B0CF4863FF2B4ACDC8211A2B4C214CAD21
:1000E000934C353FC6CF4E90BACF4C2B50CDE01A33
:1000F0000F8C033572DF21522B4ECF544272656153
:100100006B00FF2B56931BFF0300F7CD6E2B42E6CF
:100110007F354D6D1A31E678354D6D1A30E69A35DA
:10012000561975CF58632142E652355329E3322BD5
:100130003E110007902E2B3E1100082B42213E3528
:10014000506DE9E9993E99422B4211E1042B22219D
:100150002A2B2421302B28ECFEE3062B3059052BCB
:100160003E21427F005E26B4CB93429328213EE697
:1001700001354D525E26B4CBEEFEFF2B4E2B52CDF9
:10018000F2752B4C11A01B2B5A214CF35A59A25E2D
:100190005A597FCF4E2B301A0F2B4C1A0FF05AFCA6
:1001A0004C35729C215AAD908C215AAD8C0A353F4A
:1001B000DF8C753572C05920CF4E2B301A30E606D1
:1001C0003550BE5E30215AE6012B5A9084E66035E8
:1001D00053841A30E6963550D659A25E5A595CCFF0
:1001E0004E9084215AADCF4E935A9084F05A5920A4
:1001F000CF4ECF5859A25E5ACF34215AAD63FF93E8
:100200001BFF0400EC2B5CCDE3CF34CF36676F745B
:100210006F00353F12CF38CF5ECF36676F73756290
:1002200000353F26CF3875215AEC00CF5ECF3672AD
:10023000657475726E00353F3F1A1C357239CF6098
:10024000F62B5A63CF62CF36696600353F96CF38BA
:10025000DFFCEC02CF64357254CF48EC00CF38CFCE
:10026000367468656E00EE02FC3A35536AEE029011
:100270006EEE02B83A355673590435537859013544
:10028000727D59022B3EEE00F83EDF04353F8ACFE7
:1002900066215AAD353F94935A908ACF62CF36701B
:1002A0006F6B6500353FB3CF382B68CF362C0035E8
:1002B00072ADCF48CF38F068CF62CF3672656D002F
:1002C0003572C0CF362700353FCF215AAD353FCDEF
:1002D000935A90C3CF62CF366C696E6500353FDEAE
:1002E00011A019CF18110005CF182B66931B931B73
:1002F000FF0500FDCF366E65787400353F37CF407F
:100300002B6875215AEC001100FF9968F635721CB4
:10031000CF442B5ACF382168F6E301F368B83A3559
:100320005632EE002B5ACF3463CF56CF62CF3666AB
:100330006F7200353F6CCF402B68CF34CF363D0015
:1003400035724FCF48CF38F368CF36746F003572AF
:100350005DCF481100FF99682B6A215AF36ACF38A4
:10036000CF62CF36617400353F9ACF3835537BCF9B
:10037000445E30CF362C00353F98CF3835538BCF85
:1003800044E678355092CF44E3F8E9AD5E31CF6270
:10039000CF3670757400353FA9CF38CF4ECF62CFBE
:1003A000367072696E74003572B8CF363F00353FD3
:1003B000C011A013CF18CF366D6F646500353FDED6
:1003C000CF381A21E6203550DC11000B2B22213AC0
:1003D000B4E6CF62CF367361766500353FF61A21F9
:1003E000E6283553F1CF4411A017CF1811A014CF30
:1003F000180600E8CDBB75CF323556B921462B3EE5
:100400002B6AFC6C353F162146CF6EF6B83A355054
:100410005A216C2B3E213EF6B83A35532D213ECF62
:1004200070901D35565A2100FC46353F58216A2BE5
:1004300042CF6E2B6A2B4C214CADF042934C934231
:10044000214C821F357241216AFC3E3572375901B9
:10045000353F702100E680E6C0FC4635726ACF4821
:100460002146CF702B46215AAD353F8A213AF33EC3
:10047000933E933E215AAD935AF03E35727C90B72D
:10048000213E2B6AFC46353FB1216ACF702B6A2B87
:100490004C214CADF03E934C933E214C821F357263
:1004A0009B216A2B3E908E2146CF6E2B46213A63CC
:1004B000FF2B72113F352B2A11A0182B58CF18CFC4
:1004C000502A2A2A2054696E7920424153494320F8
:1004D00076326100CF5811A0082B1AFF08A05FCD1B
:1004E000B6881FE3012B4C3556B382E03572B32139
:1004F0004CE3A0FF214CFF2B70CDCEE6202B4C35DA
:1005000050CB82603572CB214CE6A0FF214CFF2BF3
:100510006ECDFA216C2B3EFC46353FF3213EF6FCB6
:100520003A3572ED213EE3022B5ACF56CF66213E7B
:10053000CF7090D4CF544C696E6500931BFF09A017
:100540005E2B5ECDDE753553B05900B83A2B3A5963
:100550002DCF4E59002B42213A3553C411D08A99E0
:100560003A2B3A59032B42111027CF7411E803CFCD
:10057000745964CF74590ACF745930993ACF4E6385
:10058000FF2B76CDEACF54537461636B002B60CDA3
:10059000F7CF5453796E746178002B48931BFF0A90
:1005A000A05FCDD2211A2B4C215A2B6A214CAD933E
:1005B0004C353FCE2B3E215AAD8820FC3E3572C0D3
:1005C000935A90A8216A2B5A214CAD934C3572C492
:1005D000CF4CCF34CF4C2B36CDFA1100802B3AE9DB
:1005E000E9993AE92B3E215AADE6303550F7E60A53
:1005F0003553F7E30A993E935A90D9213AFF931B5A
:10060000FF0BA0602B32CDD1215AAD353FB38C3AD0
:100610003572B1935ACF66CF48215ACF702B5AFC0E
:1006200046353FCE11C01BFC5A353FCE215AE3025E
:100630002B5ACF66CF54002B62CDFB21002B3E59A5
:10064000022B6A213EE6362B3E5900F03E933E1ABD
:100650003E3572E3216AE6013572DB11C01B2B6C5B
:10066000FF931BFF0CA0602B78CDED751A1CE68D57
:100670003553ACCF60CF362D00353FBBCF7A590014
:10068000B83A90C1CF362B00CF7A75EC00CF362B1D
:1006900000353FD5CF7AEE00993AEC0090C4CF36C2
:1006A0002D00353FE6CF7AEE00B83AEC0090C4EE6C
:1006B000002B3A6363FF2B38CDF9CF5456616C752C
:1006C00065002B44931BFF0DA04BCDE475CF4A75FD
:1006D000213AEC00CF362A00353FB9CF4AEE00CFA1
:1006E0007CEC0090A8CF362F00353FCACF4AEE00F1
:1006F000CF3CEC0090A8CF362500353FDDCF4AEE49
:1007000000CF3C213EEC0090A8EE002B3A6363FF43
:100710002B7A931BFF0EA060CDFB2B6AFC3A2B4279
:10072000216A3553B15900B86A2B6A213A3553BC56
:100730005900B83A2B3A3572C1CF4459002B3E2BA1
:100740004C213E993E2B3E216A3553D4933E216A7B
:10075000996A2B6A213EB83A3550E52B3E936A21BF
:100760004CE301820F3572C521423553F85900B868
:100770006AFF216AFF931BFF0FA05E2B3CCDC72BA6
:100780004C59002B6A59012B3EF84C353FB7216A72
:10079000993A2B6A213A993A2B3A213E993E357281
:1007A000AA216AFF2B7CCDE621002B3E215AAD8287
:1007B0005FE6403550E4E61B3553E4935AE9993E31
:1007C000FFCF482B40CDF7215AAD8C203572F693E0
:1007D0005A90EAFF2B34931BFF10A060CDFB7521CC
:1007E0006C2B6AFC46353FC9CF56216AF62B3ACFAF
:1007F00076936A936A216AAD353FC1CF4E90B5CFEB
:1008000058216ACF7090A32B3A2100E680E6C0FC05
:100810006A353FE2216ACF702B6A213AE32090C902
:10082000214EFC523572F9CF76CF50206279746533
:100830007320667265650063FF931BFF11A0602B38
:100840007ECDC1752B3E213AB83E3550B22B3A933E
:100850004290A72142353FBF8830CF4E59302B42BE
:1008600063FF2B74CDF17559002B42CF363C003518
:100870003FD39342CF363E00353FE02142E3042B85
:1008800042CF363D00353FED2142E3022B4221426B
:1008900063FF2B6411A01BF62B46E302931BFF1290
:1008A000A05D2B5ACDF7211A2B4C1A30E602355693
:1008B000AFCF5859005E1C214CAD353FE3593FCFB7
:1008C0004E214CAD934C3572BBCF50206572726F88
:1008D0007200E620F85AF6353FE12B3ACF502069F6
:1008E0006E2000CF76CF58CF504F6B00CF585900B5
:1008F000CF5C353FEACF72354DEA112B54CF6613EA
:10090000A057215AAD353FF18C3A353FF1215AAD10
:10091000353FEF8C3A353FEF8C183572CE935ACF76
:100920003622003572CC215AAD353FCCCF4E90B92E
:1009300090D2CF38CF76CF362C00353FE65920CF36
:100940004E1A3082073572D990A9CF363B003572E6
:10095000A9CF5890F3CF58CF6214A05DCF36696EFF
:1009600070757400353FE4215AAD353FB1CF4ECF9D
:10097000402B68CF34DFFC215AEC02881FE61FF6BB
:10098000EC00593FCF4ECF58EE00CF5C353FC4CF7F
:1009900038F368EE022B5ADF04CF362C003572A9EB
:1009A000CF62CF366E657700353FF6CF782B46CFD6
:1009B0007ECF540011A015CF1815A05CCF36636C04
:1009C0007300353FCB110001AD5E31590E2B6ACF5C
:1009D00058216AE601354DAFCF58110001AD8C08A2
:1009E0003572BA59085E31CF62CF366C69737400C4
:1009F000353FD9CF7ECF62CF3672756E00353FE975
:100A0000CF78F62B3ACF5ECF36656E6400353FF572
:100A1000CF540011A016CF1816A04ECF366C6574B7
:100A200000CF402B68CF34CF362800353FDDCF389C
:100A30003553B8CF441A69B83AE6025E692146FCDC
:100A4000683553CB214690CF2168B8463553D4CF73
:100A500044CF3629003572DDCF48CF363D003572A0
:100A6000E6CF48CF38F368CF6217A05F21005E273A
:100A7000E6602B68CDE8752B421A27E3085E271A3B
:100A800030E6063553DE590AF0682168881F8C1F4E
:100A90002B682B2459015E2611060B2B22B4E63558
:100AA0003FDA59035E0FCF5659085E272142F0689E
:100AB0009368CF5263FF2B4E1A0F8CFF3572EACF2B
:100AC0007E5920CF4E21522B4ECF6218A05E11E1ED
:100AD000042B2259005E305E261A31E30F827835EE
:100AE00072B459085E31212A2B2421302B28B4CB33
:100AF0009328B4CB93281A288CA03572BE11EE012E
:100B00002B3E88FFF6B8301A193572F7213EADE654
:100B1000783553E88C8090EA8C08F03E213EE6025E
:100B20002B3E8CFE3572DC93309330FF19A0605958
:100B3000012B241100012B26CF3875EC00CF362C69
:100B4000003572B5CF48CF382B6A3553C85900B835
:100B5000262B265900B86A2B6AEE002B3E3553DB54
:100B60005900B8242B245900B83E2B3EB86A35539F
:100B7000F8213E2B4C216A2B3E214C2B6A21242B41
:100B80004C21262B24214C2B266311A01ACF181A96
:100B9000A060213A3553A811007890AB1100882B42
:100BA00028213E2B4C2B421A2BF030214CE6012BF6
:100BB0004C3550FC2142B86AB86A2B423553D7995C
:100BC0003E993E2B42212699302B30212499302BFF
:100BD000301A30E6A03550ED3556EB9331E3405EE8
:100BE000301A3182783572FA212899302B3090B33F
:100BF000CF621BA006A01B4E4557005B8606110066
:100C0000022B1AFF005B860000A00318605F7DF4D2
:100C10002B8948AB2A0003D101C0458A28C4114062
:100C2000048410200088083E3EE127A94EAA569F62
:100C300070B276B73E984EBF7EBE764001400551F9
:100C4000114A294445B8423D3A8F3EAA7E313A2E98
:100C50007EB17E907E373E9F7CF1473E0A9B7C2191
:100C60007C9F7DDF7D3F7E4C7E6F3ACD7EB226F04D
:100C7000433F7C3E78DF7C9B6CFC70B94EF1038275
:100C800020E0470822210400412F1D267D29193F1D
:100C9000196D19F411BEB2077DE1162E898B7CE126
:100CA00047CF3D073D26194CFE5FB2883CEA15E967
:100CB000232F386E38EF3CC924BEE06D25F113E0D8
:100CC00003E4471023FF7FFF0D09FF5A0AFF761B3D
:100CD000FF2920771621084A21761E220826224164
:100CE0005222412623A82623905223065D238C5DA1
:100CF00023772524085B24772E25485225081626BD
:100D0000743626433D26082527304E2703522704F4
:100D10005527445D27082E28743E2843462843451E
:100D200029744629084E29433E2A745B2A085D2A05
:100D3000FF7C2A4B552B345B2BFF792B083A2C3741
:100D4000412C08362D344A2D034E2DFF7B2D484172
:100D50002E37492EFF712E743D2F48492F034A2FFD
:100D6000374530484530FF7030371631481631FF6F
:100D70006931371E32481E32FF7232372633482619
:100D800033FF7A33372534482534FF6B34372E351B
:100D9000482E35FF7335373636483636FF743637CA
:100DA0003D37483D37FF6C37373E38483E38FF7592
:100DB00038374639484639FF7D3908493A74493A47
:100DC000434C3A08413B74413B034C3B43413C3C60
:100DD000613C74453D0B553D43493E7C613E483A7C
:100DE0003F434A3F744E3F8C1540411E40A01E4079
:100DF000884540904C40425240481541771C417F05
:100E000032427F21437F23447F24457F2B467F341A
:100E1000477F33487F43497F3B4A7F424B7F4B4C60
:100E2000773A4D484C4D7F314E7F444F7F4D507740
:100E30001551481C517F2D527F1B537F2C547F3CF2
:100E4000557F2A56481A57771D577F2258441A59FA
:100E50007B3559731A5A481D5A44355A882E5B946B
:100E60003E5B03545BB0545B100E5CA00E5C883E8E
:100E70005C844E5C015D5C02615C94465D884E5D05
:100E8000035B5DB05B5D040E5E43365E88465E08C4
:100E9000545E60545E50555E083E5F744A5F434E38
:100EA0005F030E60883D60904E6020546044556042
:100EB000081561371C613F32623F21633F23643F65
:100EC00024653F2B663F34673F33683F43693F3BB0
:100ED0006A3F426B3F4B6C373A6D084C6D3F316E49
:100EE0003F446F3F4D70371571081C713F2D723FA5
:100EF0001B733F2C743F3C753F2A76081A77371DC9
:100F0000773F2278041A793B3579331A7A081D7AAB
:100F100004357A88257B943D7BA0527B43547B50DB
:100F20000E7CA0167C88367C415D7C42617CAC6185
:100F30007C94457D88567D435B7DA05D7D410E7E22
:100F4000881E7EA0257E90557E845B7E425D7EFF5E
:100F5000667FFF05C1FF06C2FF04C3FF0CC4FF0389
:100F6000C5FF0BC6FF83C7FF0AC8FF01C9FF09CA37
:100F7000FF78CBFF07CC0000000036000102000024
:100F80000400000000000000000038000000000025
:100F900037000202020202020202020201020408F7
:100FA00010202004100811241FBECFE5D2E0DEBFC0
:100FB000CDBF10E0A0E6B0E0E0E4FEE102C00590A5
:100FC0000D92AE3CB107D9F721E0AEECB0E001C024
:100FD0001D92AD3FB207E1F71AD530C711C8823074
:100FE00081F018F4813051F00895833019F0843085
:100FF00009F008958CB58F7D8CBD08958AB58F77E3
:1010000002C08AB58F7D8ABD0895CF93DF9390E0AB
:10101000FC01E456F04F2491FC01EE56F04F849110
:10102000882361F190E0880F991FFC01E457F04F8D
:10103000C591D491FC01EA57F04FA591B49161118B
:1010400009C09FB7F8948881209582238883EC910A
:101050002E230BC0623061F49FB7F8943881822F41
:10106000809583238883EC912E2B2C939FBF06C001
:101070008FB7F894E8812E2B28838FBFDF91CF9113
:1010800008953FB7F8948091EE009091EF00A09101
:10109000F000B091F10022B708B601FE05C02F3F65
:1010A00019F00196A11DB11D3FBFBA2FA92F982F8E
:1010B0008827820F911DA11DB11DBC01CD0143E008
:1010C000660F771F881F991F4A95D1F708958F9251
:1010D0009F92AF92BF92CF92DF92EF92FF926B01FD
:1010E0007C01CFDF4B015C01C114D104E104F104A8
:1010F000E9F0C7DFDC01CB0188199909AA09BB090E
:10110000883E9340A105B10578F321E0C21AD108C9
:10111000E108F10888EE880E83E0981EA11CB11C3E
:10112000C114D104E104F10421F7DECFFF90EF9068
:10113000DF90CF90BF90AF909F908F900895CF9306
:10114000DF93E0E8FFE08491E0EAFFE0D491E6E994
:10115000FFE0C491CC2391F0811141DFEC2FF0E04E
:10116000EE0FFF1FEA57F04FA591B4918FB7F89497
:101170009C91ED2FE095E923EC938FBF61E084E033
:10118000DF91CF9142CF615091E001C0990F6A95F4
:10119000EAF79923E1F02091FB01392F382319F068
:1011A00038B3232B03C038B32095232328BB4091A9
:1011B000F40026B32423E9F750E026B330E020956D
:1011C000309524233523232BC1F79695E2CF9091B8
:1011D000FC01890F8093FC0108954091F50050E0D7
:1011E00026B330E02095309524233523232BC1F7F7
:1011F0009091FB0128B387FF02C0922B02C090950B
:10120000922398BB2091F50096B39223E9F7409181
:10121000F40096B39423E9F750E026B330E020952C
:10122000309524233523232BC1F767E0ACCFEF9211
:10123000FF920F931F93CF93DF9300D01F92CDB7F0
:10124000DEB7182F062F8CE44A835B837983C5DFD2
:1012500066E0812F98DF68E0802F95DF68E0798174
:10126000872F91DF4A81E42E5B81F52E8701045C94
:101270001F4F68E0F70181917F0185DFE016F106DD
:10128000C1F71091FC01119568E0812F7CDF10936C
:10129000FC0198B38091FB01892B88BB0F900F90C4
:1012A0000F90DF91CF911F910F91FF90EF900895D4
:1012B000789462E084E0A9DE8BE08093F2000895E8
:1012C000FF920F931F93CF93DF93F82E8B0137DF9D
:1012D000F894C0E0D0E0C017D10724F48F2D7DDF53
:1012E0002196F9CFE5DF98B38091FB01892B88BB6C
:1012F000DF91CF911F910F91FF900895CF92DF92D0
:10130000EF92FF920F931F93CF93DF936C017B01BA
:1013100087E68093FC0113DFF894C0E0D0E0CE159F
:10132000DF059CF487010C1B1D0B0D33110514F018
:101330000CE310E0AE014A505F4FBE016C0D7D1D05
:10134000802F75DFC00FD11DEACFB2DF9091F5007D
:1013500086B38923E9F7DF91CF911F910F91FF9019
:10136000EF90DF90CF9008955F926F927F928F926F
:101370009F92AF92BF92CF92DF92EF92FF920F9324
:101380001F93CF93DF936C017B01EC018C011A5FFB
:10139000B0E29B2E8EE2582E96EF692E90E0792EC9
:1013A00074E0812C482D440F440F5701A80CB11C48
:1013B000D501EC91EE2309F45BC0EE0FFF0BE9536E
:1013C000F44FA591B4919D0150E06DEF670F8EEF42
:1013D000870F9FEF970FB7FD21C0DA01AA50BF4FCB
:1013E0001C92E62FF0E0EA50FF4F432F45954E73D5
:1013F0004083E82FF0E0EA50FF4FA90164E05595E3
:1014000047956A95E1F74E734083E92FF0E0EA5083
:10141000FF4F220F331F2E73208327C04A505F4F88
:10142000FA011082E62FF0E0EA50FF4F432F459576
:1014300045954F714083E82FF0E0EA50FF4F85E07B
:10144000359527958A95E1F72F712083E92FF0E0F4
:10145000EA50FF4FAF71A083D5018C918A3629F4F1
:10146000E72FF0E0EB50FF4F508283947C5F9ACFE0
:10147000E6EFF0E08E2F8619841740F480818921F1
:1014800011F480E201C08FE38193F4CFA42EB12C3C
:10149000B501CE0133DFD3959694C017D10709F07B
:1014A0007FCFC5018C0D9D1DDF91CF911F910F91B5
:1014B000FF90EF90DF90CF90BF90AF909F908F9074
:1014C0007F906F905F9008951F93CF93DF93182FB5
:1014D000EB0180E090E08BD4863010F080E090E06B
:1014E000A1E0B0E002C0AA0FBB1F8A95E2F767EC4B
:1014F0007CE040E050E0FB019491292F30E0209502
:1015000030952A233B23232BA9F4907C903C11F0A7
:10151000911310C0FB013196249130E02C173D0748
:1015200049F4CA0163E070E078D48753934FFC011B
:10153000849108C04F5F5F4F6D5F7F4F453E5105FF
:10154000D1F680E0DF91CF911F910895EF92FF9245
:101550000F931F93CF93DF938FB7F8940091EA0016
:101560001091EB002091EC003091ED008FBFC09105
:10157000E400D091E5009091E3008091E20098179B
:1015800079F0E091E200F0E0EE52FF4F408180916F
:10159000E20090E001968F7099278093E20001C0ED
:1015A00040E0642F70E06115710549F5D093E500C6
:1015B000C093E4008091E8008F3E19F484EC99E038
:1015C00002C083E290E04091E6005091E700041BE6
:1015D000150B8017910748F41092E800093E13405C
:1015E00040F48091E400809517C1093E134008F44F
:1015F0005CC08091E4009091E500882752C0403E95
:1016000021F0403F21F4D064B6CFD068B4CFD7FDED
:10161000706E6431710509F4DBC050F461317105FD
:1016200009F4D3C062317105B9F480E091E0D2C011
:10163000613180EE780751F0643180EE780749F02F
:101640006935710549F480E092E0C4C080E090E221
:10165000C1C080E098E0BEC0D093E500C093E40034
:101660001093E7000093E600603780EE780799F169
:1016700010F1643780EE780709F080C081E090E0D7
:10168000D6FFC7C080959095C823D923D093E50095
:10169000C093E4001092E8008091E4009091E5008E
:1016A0009F739093E5008093E4008091E800882385
:1016B00009F497CFB1C06A3580EE780709F483C08A
:1016C00060F06B3680EE780709F47BC06C3680EEF4
:1016D000780709F04DC080E4D2CF6636710571F409
:1016E000CE0188279C70892B09F48FC0CE018827F2
:1016F0009073892B09F489C01FEE7AC06A3480EE9A
:10170000780709F474C07E01EE248CE0F822D5FD40
:1017100005C0E114F10421F0D4FF02C080E808C044
:10172000CE0188279370892B11F080E401C080E0FE
:10173000CBDE182FEF2809F45BC0803209F467C0B4
:101740008F3309F452C08FE3810F8C3078F4612F0E
:101750006F7061F0CC27D073CD2B29F0615080E001
:1017600090E04DD345C080E4182742C01F7140C0AF
:10177000693680EE780709F448C0C5CF653780EE3A
:10178000780760F4613780EE780709F4A9CF6237F3
:1017900080EE780709F0B7CF84E071CF6A3780EE2A
:1017A000780711F480E26BCF6D3780EE780711F483
:1017B00080E165CF653780EE780709F0A4CF88E037
:1017C0005ECF82E05CCF1AE013C080E090E102C0FF
:1017D00080E094E0D6FF05C080959095C823D9237A
:1017E00002C0C82BD92BDF73C6CE1FE701C01FE292
:1017F0008091E4009091E50096FF1093E80088271F
:101800009093E5008093E40047CF80E838CF8FEFD6
:1018100036CFC82BD92B3ACFDF91CF911F910F91A3
:10182000FF90EF9008951F920F920FB60F92112420
:101830002F933F938F939F93AF93BF938091EA0031
:101840009091EB00A091EC00B091ED003091E90097
:1018500026E0230F2D3720F40296A11DB11D05C0EF
:1018600029E8230F0396A11DB11D2093E900809361
:10187000EA009093EB00A093EC00B093ED00809110
:10188000EE009091EF00A091F000B091F100019670
:10189000A11DB11D8093EE009093EF00A093F00086
:1018A000B093F100BF91AF919F918F913F912F9194
:1018B0000F900FBE0F901F9018951F920F920FB6AA
:1018C0000F9211242F933F934F935F936F937F93C6
:1018D0008F939F93AF93BF93CF93DF93EF93FF9338
:1018E00086B390E0809590952091F30030E08223BC
:1018F0009323892B09F478C0EFE7FFE08491EFE9A7
:10190000FFE0D491E5E9FFE0C491CC2399F0811187
:1019100066DBEC2FF0E0EE0FFF1FEA58F04FA591C9
:10192000B491EC91ED2331E020E009F430E0832F15
:10193000922F02C080E090E02FB7F8944091EA0027
:101940005091EB006091EC007091ED002FBF209161
:10195000D0003091D100FA01E21BF30B369720F44E
:101960002091F2002B3040F021E030E03093CF00A6
:101970002093CE001092F2005093D1004093D000FB
:101980004091F200BC01042E02C0660F771F0A943A
:10199000E2F72091CE003091CF00262B372B822703
:1019A00093279093CF008093CE004A30B1F4E0911A
:1019B000E300F0E0EE52FF4F9C0135952795208320
:1019C0002091E30030E02F5F3F4F2F70332750917D
:1019D000E200521711F080FD04C04F5F4093F20007
:1019E00003C02093E300F9CFFF91EF91DF91CF91F6
:1019F000BF91AF919F918F917F916F915F914F9127
:101A00003F912F910F900FBE0F901F901895CF937D
:101A1000DF93CDB7DEB764970FB6F894DEBF0FBE85
:101A2000CDBF78948AB582608ABD8AB581608ABD4F
:101A300083B7826083BF83B7816083BF89B78260C9
:101A400089BF80B7826080BF80B7816080BF329AD3
:101A5000319A3098379A8CB580648CBD84E080933D
:101A6000FB0182E08093F50081E08093F400C29A4C
:101A70008091FB0187BB80E092E09093F801809316
:101A8000F7016EE571E080E090E021DB62E083E049
:101A9000BCDA62E084E0B9DA8BE08093F200E0EA3D
:101AA000FFE0E491E093F3008BB780628BBF95B3C6
:101AB0008091F300892B85BBEE24E394F12C30E474
:101AC000C32E3DDBF8944091F500642F70E020E0D8
:101AD00030E086B390E08095909586239723892BFC
:101AE00039F021503109A9F71BC021503109C1F04B
:101AF00086B38423D1F75091F40010E0252F30E015
:101B000086B38523E9F786B3842359F486B390E03E
:101B10008095909582239323892BC1F71F5FF0CF87
:101B200010E0C6DB173051F0193009F04BC090912E
:101B3000FA018091F901892B8093FA011091F90142
:101B4000110F1093F901A0906000B0906100809196
:101B5000F7019091F801A816B90640F08091F601BE
:101B6000882321F06AE070E083E0AADB111131C024
:101B70006091FA01C5010196909361008093600025
:101B8000C5013DD18091FA018A3089F46FEF8091CF
:101B900060009091610033D18091F601811104C001
:101BA000F0926100E09260001092F60105C0809111
:101BB000F6018F5F8093F6011092FA0181E0809325
:101BC000F90107C01092FA0181E08093F9011092A7
:101BD000F6016FE070E080E090E079DAB7DCD82EB3
:101BE0002FEF821709F4FCC0E82FEC258FE38E0F4E
:101BF0008C3008F0DDC0EF7009F4DAC0E13009F094
:101C000056C083E1EAEBF0E0DE01119601900D92FF
:101C10008A95E1F7BE016F5F7F4F80E098E0A4DB1B
:101C200088271A8610E2188722E32F83BE016F5F90
:101C30007F4F9A5F99DB6CE770E096DB8827188707
:101C400023E32F83BE016F5F7F4F9A5F8DDB62E8D6
:101C500070E08ADB88276AE870E09A5F85DB8C0198
:101C600080E090E0C4D0863010F490E002C080E0C4
:101C700090E063E070E0D1D0BC016E597F4FC801A5
:101C800073DB63E970E070DB88276FEA70E09A5FCE
:101C90006BDB02E610E061E970E066DBB80164DB53
:101CA0000D5F1F4F40E004371407A9F781C0E430EF
:101CB00008F07EC0F0E0EE0FFF1FEE0FFF1FE459AB
:101CC000FF4F0190F081E02D309709F453C09F0140
:101CD0002F5F3F4FE4914E2F50E0F9016491942F14
:101CE0008827860F911D5901F2E0AF0EB11CF90152
:101CF0003196249130E02115310511F420E031E0D6
:101D0000A6EFB0E060E070E0F501E60FF71FE491A8
:101D1000ED936F5F7F4F62177307B1F7A60EB71E83
:101D20009B01280F311D2130314008F041C0E6DA17
:101D300095012F5F3F4FF501449150E0411551054A
:101D400009F0CBCFF90104913196E49110E0102F06
:101D500000270E0F111D0115110551F1F0D9F8944E
:101D600087E68093FC0146EE51E0B80180E05FDA3F
:101D70009FDA1EC001E010E0C80139D0982F8F3FD4
:101D8000B9F061E070E09C8B9BDA9C899A3029F075
:101D900064E170E080E090E004C066E470E080E020
:101DA00090E095D90F5F1F4F0115F2E01F0721F753
:101DB0008D2D8C259FE3980F9C3010F48F7029F4A3
:101DC000BED9F8948D2D09DA73DA2FEFD21641F0CF
:101DD0006FE070E080E090E07AD9B8DBD82EE8CFF1
:101DE00080E090E0892B09F46CCE0AD168CEE199AD
:101DF000FECF9FBB8EBBE09A99278DB30895262F07
:101E0000E199FECF1CBA9FBB8EBB2DBB0FB6F894D9
:101E1000E29AE19A0FBE019608950024552704C066
:101E2000080E591F880F991F009729F0769567951E
:101E3000B8F37105B9F7802D952F0895F894FFCF69
:101E400001005553004742004445004652004954A2
:101E5000004553001E007C000000820042415349AF
:101E600043002D53415645442D004B65796D6170FB
:101E70003A200020284368616E676520776974689E
:101E8000204374726C2D416C742D46787829004182
:101E90007661696C61626C653A004374726C2D46C0
:0E1EA000312020546869732068656C70000062
:00000001FF
