:1000000088C8A2C816CDA0C89FC8C9CC9DC89CC826
:100010009BC89AC899C898C897C896C895C802003E
:10002000E2CD0A2A2A20576F7A4D6F6E002B3011CD
:10003000DF01F62B32CD60E652355322E3322B340A
:1000400011000790272B341100082B362134E9E9E1
:10005000993499362B3611E1042B22212A2B2421A5
:10006000322B28ECFEE3062B3259052B3421367F48
:10007000005E26B4CB933693282134E601354D48F3
:10008000EEFEFF2B38CDAD1A32353FAC11E1042B1B
:10009000221100085E32993235537B1100082B3251
:1000A0002B285E26B4CB93281A288CA03572811198
:1000B000EE012B342134ADE67835539D8C80909F32
:1000C0008C08F0342134E6022B348CFE357291FF1B
:1000D0002B3ACDD9752B301152062B222130B4F595
:1000E000E60A3550C4E307E33ACF382130820FE601
:1000F0000A3550D3E307E33ACF3863FF2B3C1100B6
:1001000003CF180300F3CDD37559802B3ECF3A931C
:100110003E213EAD353FD1E62E35500735721D5993
:10012000012B409007E60C357228E6012B40900722
:10013000E618357231CF42900759002B302B44E935
:10014000E9E9E92B34213EAD933EE630355068E6CF
:100150000A3553542B30E30A99349035E606821F52
:10016000355668E6073553682B30E31099349035DF
:100170002130353FCD213EE6022B3E2140355384D0
:100180002144F0462146E3012B469007357291CF7A
:100190003A21442B46E6012B422142B8443553C74D
:1001A0002142E3012B4282073572A5CF3A1A32353C
:1001B00072BA59025E321A43CF3C1A42CF3C593AC6
:1001C000CF382132E3042B322142ADCF3C909159FC
:1001D000002B409007595CCF3863FF2B48933211B6
:1001E000200F2B2A5E24CF3A592ACF382130AD93E5
:1001F000303572E2110004CF1804007259812B3E91
:10020000CF3A597F5E2BCF382B321A0F2B301A0F73
:10021000F03EFC3035721E213EAD900E213EAD8C7D
:100220000A353F608C753572425920CF382B321A0F
:1002300032E6063550405E32213EE6012B3E900408
:10024000E6603553041A328C96357257595CCF38B4
:10025000110004CF18213EADCF38933E9004F03EFC
:100260002B405920CF38590F5E2BCF4890FE00020B
:10027000000200CF11DF01F62B30CDB275CF323541
:100280005010CF3463FFCF362800353F1BCF389056
:10029000A7CF367065656B2800353F2DCF38AD2B65
:1002A0003A90A7CF36726E642800353F4BCF381195
:1002B000A7042B22B4FD35503ECF3C213E2B3A9073
:1002C000A7CF367573722800353F5DCF38CF3A2BF4
:1002D0003A90A7CF402B42CF34CF362800353FA0ED
:1002E000752142EC00CF38355376CF44EE002B42D7
:1002F000631A43B83AE6025E432146FC4235538E08
:10030000214690922142B846355397CF44CF3629A3
:10031000003572A0CF482142F62B3A63FFCF362931
:10032000003572B0CF4863FF2B4ACDC8211A2B4C41
:10033000214CAD934C353FC6CF4E90BACF4C2B508D
:10034000931BFF0300F7CD6E2B42E67F354D6D1AF0
:1003500031E678354D6D1A30E69B35561975CF521A
:10036000632142E652355329E3322B3E11000790B8
:100370002E2B3E1100082B42213E35506DE9E999A4
:100380003E99422B4211E1042B22212A2B242130B9
:100390002B28ECFEE3062B3059052B3E21427F0033
:1003A0005E26B4CB93429328213EE601354D525E42
:1003B00026B4CBEEFEFF2B4E2B54CDF2752B4C11F9
:1003C000A0192B56214CF35659A25E56597FCF4E99
:1003D0002B301A0F2B4C1A0FF056FC4C35729C2107
:1003E00056AD908C2156AD8C0A353FDF8C75357239
:1003F000C05920CF4E2B301A30E6063550BE5E3045
:100400002156E6012B569084E6603553841A30E677
:10041000963550D659A25E56595CCF4E90842156DF
:10042000ADCF4E93569084F0565920CF4ECF5259AF
:10043000A25E56CF342156AD63FF931BFF0400DD4F
:100440002B58CDD4CF34CF36676F746F00353F1241
:10045000CF38CF5ACF36676F73756200353F26CFDE
:1004600038752156EC00CF5ACF3672657475726EAE
:1004700000353F3F1A1C357239CF5CF62B5663CFDF
:100480005ECF36696600353F96CF38DFFCEC02CF91
:1004900060357254CF48EC00CF38CF367468656E43
:1004A00000EE02FC3A35536AEE02906EEE02B83A64
:1004B0003556735904355378590135727D59022BDD
:1004C0003EEE00F83EDF04353F8ACF622156AD355F
:1004D0003F949356908ACF5ECF36706F6B65003530
:1004E0003FB3CF382B64CF362C003572ADCF48CF19
:1004F00038F064CF5ECF3672656D003572C0CF368E
:100500002700353FCF2156AD353FCD935690C3CF11
:100510005E110005CF182B62931B931BFF0500F1A2
:10052000CF366E65787400353F37CF402B64752128
:1005300056EC001100FF9964F635721CCF442B561F
:10054000CF382164F6E301F364B83A355632EE0051
:100550002B56CF3463CF66CF5ECF36666F720035D1
:100560003F6CCF402B64CF34CF363D0035724FCF38
:1005700048CF38F364CF36746F0035725DCF4811C1
:1005800000FF99642B682156F368CF38CF5ECF36D1
:10059000617400353F9ACF3835537BCF445E30CFFE
:1005A000362C00353F98CF3835538BCF44E678351D
:1005B0005092CF44E3F8E9AD5E31CF5ECF3670752F
:1005C0007400353FA9CF38CF4ECF5ECF366472610D
:1005D0007700353FB5CF48CF367072696E740035FD
:1005E00072C4CF363F00353FCC11A013CF18CF36A1
:1005F0006D6F646500353FEACF381A21E62035502B
:10060000E811000B2B22213AB4E6CF5E11A014CFE3
:10061000180600FECDBB75CF323556B921462B3EAC
:100620002B68FC6A353F162146CF6CF6B83A355038
:100630005A216A2B3E213EF6B83A35532D213ECF42
:100640006E901D35565A2100FC46353F5821682BC7
:1006500042CF6C2B682B4C214CADF042934C934213
:10066000214C821F3572412168FC3E357237590199
:10067000353F702100E680E6C0FC4635726ACF48FF
:100680002146CF6E2B462156AD353F8A213AF33EA7
:10069000933E933E2156AD9356F03E35727C90B713
:1006A000213E2B68FC46353FB12168CF6E2B682B6D
:1006B0004C214CADF03E934C933E214C821F357241
:1006C0009B21682B3E908E2146CF6C2B46213A63AE
:1006D000FF2B70CDD31A0F8C7F3572D221542B4E45
:1006E000CF72427265616B00FF2B66113F352B2A7A
:1006F0005E2411A0182B52CF18CF502A2A2A20543A
:10070000696E7920424153494300CF5211A0082B12
:100710001AFF08A05FCDB6881FE3012B4C3556B3F6
:1007200082E03572B3214CE3A0FF214CFF2B6ECD4C
:10073000CEE6202B4C3550CB82603572CB214CE677
:10074000A0FF214CFF2B6CCDFA216A2B3EFC4635D5
:100750003FF3213EF6FC3A3572ED213EE3022B5683
:10076000CF66CF62213ECF6E90D4CF724C696E655A
:1007700000931BFF09A05E2B5ACDDE753553B0598F
:1007800000B83A2B3A592DCF4E59002B42213A3519
:1007900053C411D08A993A2B3A59032B421110278E
:1007A000CF7411E803CF745964CF74590ACF7459C8
:1007B00030993ACF4E63FF2B76CDEACF72537461F6
:1007C000636B002B5CCDF7CF7253796E7461780048
:1007D0002B48931BFF0AA05FCDD2211A2B4C215628
:1007E0002B68214CAD934C353FCE2B3E2156AD8826
:1007F00020FC3E3572C0935690A821682B56214CA0
:10080000AD934C3572C4CF4CCF34CF4C2B36CDFA90
:100810001100802B3AE9E9993AE92B3E2156ADE6E1
:10082000303550F7E60A3553F7E30A993E93569070
:10083000D9213AFF931BFF0BA05F2B32CDD121565C
:10084000AD353FB38C3A3572B19356CF62CF482164
:1008500056CF6E2B56FC46353FCE11C019FC56358F
:100860003FCE2156E3022B56CF62CF72002B5ECDD6
:10087000FA21462B3E5900F33E933E933E1A3E35F5
:1008800072D92100FC3E353FF411CA01993E90D740
:1008900011C0192B6AFF931BFF0CA0602B78CDEDC4
:1008A000751A1CE68D3553ACCF5CCF362D00353F25
:1008B000BBCF7A5900B83A90C1CF362B00CF7A75AA
:1008C000EC00CF362B00353FD5CF7AEE00993AECCD
:1008D0000090C4CF362D00353FE6CF7AEE00B83A0F
:1008E000EC0090C4EE002B3A6363FF2B38CDF9CFB8
:1008F0007256616C7565002B44931BFF0DA04BCDA8
:10090000E475CF4A75213AEC00CF362A00353FB95D
:10091000CF4AEE00CF7CEC0090A8CF362F00353FB9
:10092000CACF4AEE00CF3CEC0090A8CF3625003568
:100930003FDDCF4AEE00CF3C213EEC0090A8EE0018
:100940002B3A6363FF2B7A931BFF0EA060CDFB2B2A
:1009500068FC3A2B4221683553B15900B8682B68BE
:10096000213A3553BC5900B83A2B3A3572C1CF44BD
:1009700059002B3E2B4C213E993E2B3E216835538E
:10098000D4933E216899682B68213EB83A3550E5EA
:100990002B3E9368214CE301820F3572C52142350D
:1009A00053F85900B868FF2168FF931BFF0FA05C44
:1009B0002B3CCDC72B4C59002B6859012B3EF84CD2
:1009C000353FB72168993A2B68213A993A2B3A2159
:1009D0003E993E3572AA2168FF2B7CCDE621002B83
:1009E0003E2156AD825FE6403550E4E61B3553E4C8
:1009F0009356E9993EFFCF482B40CDF72156AD8C59
:100A0000203572F6935690EAFF931BFF10A05F2BE0
:100A100034CDF875216A2B68FC46353FCBCF662173
:100A200068F62B3ACF76936893682168AD353FC35B
:100A3000CF4E90B7CF522168CF6E90A52B3A2100B0
:100A4000E680E6C0FC68353FE42168CF6E2B682164
:100A50003AE32090CBCF76CF502062797465732033
:100A60006672656500CF5263FF2B7E931BFF11A05A
:100A700060CDBF752B3E213AB83E3550B02B3A932E
:100A80004290A52142353FBD8830CF4E59302B4290
:100A900063FF2B74CDEF7559002B42CF363C0035E8
:100AA0003FD19342CF363E00353FDE2142E3042B57
:100AB00042CF363D00353FEB2142E3022B4221423B
:100AC00063FF2B6011A019F62B46E3022B56931BF4
:100AD000FF12A05DCDF7211A2B4C1A30E6023556D5
:100AE000ADCF5259005E1C214CAD353FE3593FCF8D
:100AF0004E214CAD934C3572B9CF50206572726F58
:100B00007200E620F856E300F6353FE12B3ACF506D
:100B100020696E2000CF76CF52CF504F6B00CF525E
:100B20005900CF58353FEACF70354DEA112B72CFBF
:100B30006213A0572156AD353FF18C3A353FF12174
:100B400056AD353FEF8C3A353FEF8C183572CE936A
:100B500056CF3622003572CC2156AD353FCCCF4E24
:100B600090B990D2CF38CF76CF362C00353FE659AA
:100B700020CF4E1A3082073572D990A9CF363B006C
:100B80003572A9CF5290F3CF52CF5E14A05DCF360D
:100B9000696E70757400353FE42156AD353FB1CFB5
:100BA0004ECF402B64CF34DFFC2156EC02881FE689
:100BB0001FF6EC00593FCF4ECF52EE00CF58353FD5
:100BC000C4CF38F364EE022B56DF04CF362C003549
:100BD00072A9CF5ECF366E657700353FF6CF782BA2
:100BE00046CF7ECF720011A015CF1815A05CCF366E
:100BF000636C7300353FCB110001AD5E31590E2B94
:100C000068CF522168E601354DAFCF52110001ADDA
:100C10008C08354DBA59085E31CF5ECF366C69739A
:100C20007400353FD9CF7ECF5ECF3672756E0035FA
:100C30003FE9CF78F62B3ACF5ACF36656E64003550
:100C40003FF5CF720011A016CF1816A05DCF3673F6
:100C500061766500353FAD11A017CF18CF366C65B2
:100C60007400CF402B64CF34CF362800353FECCF13
:100C7000383553C7CF441A65B83AE6025E65214657
:100C8000FC643553DA214690DE2164B8463553E3DF
:100C9000CF44CF3629003572ECCF48CF363D0035F2
:100CA00072F5CF48CF38F364CF5E17A0541A21E60F
:100CB000203550F02100E6602B6459085E27CDE80E
:100CC000752B421A30E602354DD8590AF06421647A
:100CD000881F8C1F2B642B2459015E2611060B2BB9
:100CE00022B4E659085E271A27E3085E272142F05E
:100CF000649364CF5463FF2B4ECF7E21542B4ECF91
:100D00005E18A05A11E1042B2259005E305E261AAB
:100D100031E30882783572B459085E3121302B28CE
:100D2000B4CB9328B4CB93281A288CA03572BA116F
:100D3000EE012B3E88FFF6B8301A193572F3213ECA
:100D4000ADE6783553E48C8090E68C08F03E213E89
:100D5000E6022B3E8CFE3572D893309330FF19A0FB
:100D600006A0194E4557005B86061100022B1AFF9C
:100D7000005B860000A00318605F7DF42B8948AB00
:100D80002A0003D101C0458A28C4114004841020E0
:100D90000088083E3EE127A94EAA569F70B276B75A
:100DA0003E984EBF7EBE764001400551114A29440F
:100DB00045B8423D3A8F3EAA7E313A2E7EB17E90B2
:100DC0007E373E9F7CF1473E0A9B7C217C9F7DDFE6
:100DD0007D3F7E4C7E6F3ACD7EB226F0433F7C3E17
:100DE00078DF7C9B6CFC70B94EF1038220E04708F1
:100DF00022210400412F1D267D29193F196D19F468
:100E000011BEB2077DE1162E898B7CE147CF3D07ED
:100E10003D26194CFE5FB2883CEA15E9232F386E57
:100E200038EF3CC924BEE06D25F113E003E4471020
:100E300023FF7FFF0D09FF5A0AFF761BFF2920774A
:100E40001621084A21761E220826224152224126D6
:100E500023A82623905223065D238C5D2377252427
:100E6000085B24772E25485225081626743626431B
:100E70003D26082527304E27035227045527445D79
:100E800027082E28743E28434628434529744629BE
:100E9000084E29433E2A745B2A085D2AFF7C2A4BB0
:100EA000552B345B2BFF792B083A2C37412C083615
:100EB0002D344A2D034E2DFF7B2D48412E37492ED0
:100EC000FF712E743D2F48492F034A2F3745304874
:100ED0004530FF7030371631481631FF6931371E03
:100EE00032481E32FF7232372633482633FF7A33B8
:100EF000372534482534FF6B34372E35482E35FFDF
:100F00007335373636483636FF7436373D37483D09
:100F100037FF6C37373E38483E38FF75383746392B
:100F2000484639FF7D3908493A74493A434C3A08F2
:100F3000413B74413B034C3B43413C3C613C744569
:100F40003D0B553D43493E7C613E483A3F434A3F55
:100F5000744E3F8C1540411E40A01E408845409075
:100F60004C40425240481541771C417F32427F211C
:100F7000437F23447F24457F2B467F34477F33487C
:100F80007F43497F3B4A7F424B7F4B4C773A4D48EA
:100F90004C4D7F314E7F444F7F4D50771551481C4B
:100FA000517F2D527F1B537F2C547F3C557F2A56F7
:100FB000481A57771D577F2258441A597B35597361
:100FC0001A5A481D5A44355A882E5B943E5B035486
:100FD0005BB0545B100E5CA00E5C883E5C844E5C83
:100FE000015D5C02615C94465D884E5D035B5DB0B3
:100FF0005B5D040E5E43365E88465E08545E605458
:101000005E50555E083E5F744A5F434E5F030E605C
:10101000883D60904E6020546044556008156137EB
:101020001C613F32623F21633F23643F24653F2BB5
:10103000663F34673F33683F43693F3B6A3F426BDB
:101040003F4B6C373A6D084C6D3F316E3F446F3FFC
:101050004D70371571081C713F2D723F1B733F2C6B
:10106000743F3C753F2A76081A77371D773F227800
:10107000041A793B3579331A7A081D7A04357A884F
:10108000257B943D7BA0527B43547B500E7CA01665
:101090007C88367C415D7C42617CAC617C94457D82
:1010A00088567D435B7DA05D7D410E7E881E7EA0BF
:1010B000257E90557E845B7E425D7EFF667FFF05C8
:1010C000C1FF06C2FF04C3FF0CC4FF03C5FF0BC66C
:1010D000FF83C7FF0AC8FF01C9FF09CAFF78CBFF1A
:1010E00007CC0000000036000102000004000000F0
:1010F000000000000000380000000000370002027D
:10110000020202020202020201020408102020046C
:10111000100811241FBECFE5D2E0DEBFCDBF10E026
:10112000A0E6B0E0E0E2FFE102C005900D92A03D34
:10113000B107D9F722E0A0EDB0E001C01D92A130C7
:10114000B207E1F73CD5EAC65BC7823081F018F4FC
:10115000813051F00895833019F0843009F00895FA
:101160008CB58F7D8CBD08958AB58F7702C08AB506
:101170008F7D8ABD0895CF93DF9390E0FC01E85FF7
:10118000FE4E2491FC01E250FF4E8491882361F1D0
:1011900090E0880F991FFC01E850FF4EC591D49153
:1011A000FC01EE50FF4EA591B491611109C09FB7AB
:1011B000F8948881209582238883EC912E230BC09C
:1011C000623061F49FB7F8943881822F8095832331
:1011D0008883EC912E2B2C939FBF06C08FB7F89479
:1011E000E8812E2B28838FBFDF91CF9108953FB7E1
:1011F000F8948091F6009091F700A091F800B091DA
:10120000F90022B708B601FE05C02F3F19F001967C
:10121000A11DB11D3FBFBA2FA92F982F8827820F7C
:10122000911DA11DB11DBC01CD0143E0660F771FCB
:10123000881F991F4A95D1F708958F929F92AF9278
:10124000BF92CF92DF92EF92FF926B017C01CFDFD2
:101250004B015C01C114D104E104F104E9F0C7DFE2
:10126000DC01CB0188199909AA09BB09883E934082
:10127000A105B10578F321E0C21AD108E108F1080F
:1012800088EE880E83E0981EA11CB11CC114D10405
:10129000E104F10421F7DECFFF90EF90DF90CF90D3
:1012A000BF90AF909F908F900895CF93DF93ECEE17
:1012B000F0E18491ECE0F1E1D491E2E0F1E1C4915C
:1012C000CC2391F0811141DFEC2FF0E0EE0FFF1FF6
:1012D000EE50FF4EA591B4918FB7F8949C91ED2FED
:1012E000E095E923EC938FBF61E084E0DF91CF913B
:1012F00042CF62E084E03FDF8BE08093D600089528
:10130000615091E001C0990F6A95EAF79923E1F0E5
:101310002091FF01392F382319F038B3232B03C054
:1013200038B32095232328BB4091FB0026B3242308
:10133000E9F750E026B330E020953095242335239B
:10134000232BC1F79695E2CF90910002890F8093ED
:10135000000208954091FC0050E026B330E0209553
:10136000309524233523232BC1F79091FF0128B317
:1013700087FF02C0922B02C09095922398BB2091C8
:10138000FC0096B39223E9F74091FB0096B39423B7
:10139000E9F750E026B330E020953095242335233B
:1013A000232BC1F767E0ACCFEF92FF920F931F930F
:1013B000CF93DF9300D01F92CDB7DEB7182F062F43
:1013C0008CE44A835B837983C5DF66E0812F98DFF5
:1013D00068E0802F95DF68E07981872F91DF4A816F
:1013E000E42E5B81F52E8701045C1F4F68E0F70156
:1013F00081917F0185DFE016F106C1F710910002AF
:10140000119568E0812F7CDF1093000298B38091E2
:10141000FF01892B88BB0F900F900F90DF91CF9128
:101420001F910F91FF90EF900895CF92DF92EF926E
:10143000FF920F931F93CF93DF936C017B0187E69D
:101440008093000232DFF894C0E0D0E0CE15DF05D3
:101450009CF487010C1B1D0B0D33110514F00CE3DC
:1014600010E0AE0143505F4FBE016C0D7D1D802F1B
:101470009BDFC00FD11DEACF78943BDF9091FC0039
:1014800086B38923E9F7DF91CF911F910F91FF90E8
:10149000EF90DF90CF9008955F926F927F928F923E
:1014A0009F92AF92BF92CF92DF92EF92FF920F93F3
:1014B0001F93CF93DF936C017B01EC018C011A5FCA
:1014C000B0E29B2E8EE2582E9DEF692E90E0792E91
:1014D00074E0812C482D440F440F5701A80CB11C17
:1014E000D501EC91EE2309F45BC0EE0FFF0BED5C30
:1014F000F24FA591B4919D0150E06DEF670F8EEF13
:10150000870F9FEF970FB7FD21C0DA01A350BF4FA0
:101510001C92E62FF0E0E350FF4F432F45954E73AA
:101520004083E82FF0E0E350FF4FA90164E05595B8
:1015300047956A95E1F74E734083E92FF0E0E35059
:10154000FF4F220F331F2E73208327C043505F4F5E
:10155000FA011082E62FF0E0E350FF4F432F45954C
:1015600045954F714083E82FF0E0E350FF4F85E051
:10157000359527958A95E1F72F712083E92FF0E0C3
:10158000E350FF4FAF71A083D5018C918A3629F4C7
:10159000E72FF0E0E450FF4F508283947C5F9ACFB6
:1015A000EDEFF0E08E2F8619841740F480818921B9
:1015B00011F480E201C08FE38193F4CFA42EB12C0B
:1015C000B501CE0132DFD3959694C017D10709F04B
:1015D0007FCFC5018C0D9D1DDF91CF911F910F9184
:1015E000FF90EF90DF90CF90BF90AF909F908F9043
:1015F0007F906F905F9008951F93CF93DF93182F84
:10160000EB0180E090E063D4282F30E026303105F4
:101610000CF080E0A1E0B0E002C0AA0FBB1F8A95E9
:10162000E2F763E37EE040E050E0FB019491292F74
:1016300030E0209530952A233B23232BA9F4907C7E
:10164000903C11F0911310C0FB013196249130E0D1
:101650002C173D0749F4CA0163E070E04ED48B5C5F
:10166000914FFC01849108C04F5F5F4F6D5F7F4FCA
:10167000453E5105D1F680E0DF91CF911F9108954D
:10168000EF92FF920F931F93CF93DF938FB7F8944E
:101690000091F2001091F3002091F4003091F500D8
:1016A0008FBFC091E900D091EA009091E80080914D
:1016B000E700981779F0E091E700F0E0E952FF4F7A
:1016C00040818091E70090E001968F709927809388
:1016D000E70001C040E0642F70E061157105D9F5A5
:1016E000D093EA00C093E9008091EF009091F00060
:1016F0008F3E910529F484EC99E0A0E0B0E004C0AD
:1017000083E290E0A0E0B0E04091EB005091EC006B
:101710006091ED007091EE00041B150B260B370B4A
:1017200080179107A207B30784F41092F00010927B
:10173000EF00093E1340210531050CF46FC0809184
:10174000E9009091EA0088275EC0093E1340210518
:101750003105ACF75CC0403E21F0403F21F4D0643D
:10176000A4CFD068A2CFD7FD706E6431710509F4A3
:10177000E6C050F46131710509F4DEC062317105D3
:10178000B9F480E091E0DDC0613180EE780751F07E
:10179000643180EE780749F06935710549F480E0DD
:1017A00092E0CFC080E090E2CCC080E098E0C9C079
:1017B000D093EA00C093E9000093EB001093EC0093
:1017C0002093ED003093EE00603780EE7807D1F182
:1017D00048F1643780EE780709F087C081E090E037
:1017E000D6FFD3C080959095C823D923D093EA0023
:1017F000C093E9001092F0001092EF008091E90090
:101800009091EA009F739093EA008093E9008091A1
:10181000EF009091F000009709F0BAC08091E900C4
:101820008095B6C06A3580EE780709F483C060F011
:101830006B3680EE780709F47BC06C3680EE780753
:1018400009F04DC080E4CBCF6636710571F4CE014E
:1018500088279C70892B09F494C0CE018827907347
:10186000892B09F48EC01FEE7AC06A3480EE7807A7
:1018700009F474C07E01EE248CE0F822D5FD05C089
:10188000E114F10421F0D4FF02C080E808C0CE01C9
:1018900088279370892B11F080E401C080E0ACDED2
:1018A000182FEF2809F45BC0803209F46CC08F3325
:1018B00009F452C08FE3810F8C3078F4612F6F7080
:1018C00061F0CC27D073CD2B29F0615080E090E0FF
:1018D00006D345C080E4182742C01F7140C0693656
:1018E00080EE780709F44DC0C5CF653780EE7807E4
:1018F00060F4613780EE780709F4A9CF623780EE93
:10190000780709F0B7CF84E06ACF6A3780EE7807AE
:1019100011F480E264CF6D3780EE780711F480E136
:101920005ECF653780EE780709F0A4CF88E057CF07
:1019300082E055CF1AE013C080E090E102C080E061
:1019400094E0D6FF05C080959095C823D92302C0A6
:10195000C82BD92BDF73A9CE1FE701C01FE220914E
:10196000E9003091EA0036FD06C0812F90E09093A7
:10197000F0008093EF0022273093EA002093E900E3
:101980003DCF80E82CCF8FEF2ACFC82BD92B2ECF7D
:10199000DF91CF911F910F91FF90EF9008951F92CB
:1019A0000F920FB60F9211242F933F938F939F9313
:1019B000AF93BF938091F2009091F300A091F40057
:1019C000B091F5003091F10026E0230F2D3720F47F
:1019D0000296A11DB11D05C029E8230F0396A11D84
:1019E000B11D2093F1008093F2009093F300A09337
:1019F000F400B093F5008091F6009091F700A0916B
:101A0000F800B091F9000196A11DB11D8093F60078
:101A10009093F700A093F800B093F900BF91AF91B5
:101A20009F918F913F912F910F900FBE0F901F901C
:101A300018951F920F920FB60F921124CF92DF923A
:101A4000EF92FF920F931F932F933F934F935F93C8
:101A50006F937F938F939F93AF93BF93CF93DF93B6
:101A6000EF93FF9386B390E0809590952091FA00D4
:101A700030E082239323892B09F488C0EBEEF0E158
:101A80008491EBE0F1E1D491E1E0F1E1C491CC2368
:101A900099F081115ADBEC2FF0E0EE0FFF1FEE51B1
:101AA000FF4EA591B491EC91ED2331E020E009F4D3
:101AB00030E0832F922F02C080E090E02FB7F8949F
:101AC0004091F2005091F3006091F4007091F500A4
:101AD0002FBF0091D2001091D3002091D4003091FB
:101AE000D5006A017B01C01AD10AE20AF30A970104
:101AF0008601063011052105310524F42091D60018
:101B00002B3040F021E030E03093D1002093D00022
:101B10001092D6004093D2005093D3006093D4002B
:101B20007093D5004091D600BC01042E02C0660F10
:101B3000771F0A94E2F72091D0003091D100262B34
:101B4000372B822793279093D1008093D0004A307F
:101B5000B1F4E091E800F0E0E952FF4F9C013595C7
:101B6000279520832091E80030E02F5F3F4F2F70B2
:101B700033275091E700521711F080FD04C04F5FEA
:101B80004093D60003C02093E800F9CFFF91EF9176
:101B9000DF91CF91BF91AF919F918F917F916F9185
:101BA0005F914F913F912F911F910F91FF90EF9077
:101BB000DF90CF900F900FBE0F901F901895CF938E
:101BC000DF93CDB7DEB763970FB6F894DEBF0FBED5
:101BD000CDBF78948AB582608ABD8AB581608ABD9E
:101BE00083B7826083BF83B7816083BF89B7826018
:101BF00089BF80B7826080BF80B7816080BF329A22
:101C0000319A3098379A8CB580648CBD84E080938B
:101C1000FF0182E08093FC0081E08093FB00C29A88
:101C20008091FF0187BB6EE571E080E090E005DB0D
:101C300062E083E0A0DA5DDBECE0F1E1E491E093C7
:101C4000FA008BB780628BBF95B38091FA00892B25
:101C500085BBE0E0EE2EE0E0FE2E70E4C72E25DB33
:101C6000F8944091FC00642F70E020E23EE486B3DB
:101C700090E08095909586239723892B39F0215009
:101C80003109A8F71BC021503109C0F086B3842365
:101C9000D1F75091FB0010E0252F30E086B385236B
:101CA000E9F786B3842359F486B390E08095909544
:101CB00082239323892BC1F71F5FF0CF10E0789424
:101CC00018DB183099F0193019F01730A1F407C05B
:101CD0009091FE018091FD01892B8093FE018091FE
:101CE000FD01880F8093FD01811105C01092FE0156
:101CF00081E08093FD016FE070E080E090E09DDA8C
:101D0000BFDCD82EFFEF8F1709F4DBC0E82FEC25DE
:101D10008FE38E0F8C3008F0BBC0EF7009F4B8C0B1
:101D2000E13009F059C083E1ECEBF0E0DE011196FF
:101D300001900D928A95E1F7BE016F5F7F4F80E0C1
:101D400098E0AADB88271A8610E2188722E32F83FF
:101D5000BE016F5F7F4F9A5F9FDB6AE770E09CDB9D
:101D60008827188723E32F83BE016F5F7F4F9A5F19
:101D700093DB65E870E090DB88276CE870E09A5FA1
:101D80008BDB8C0180E090E0A2D0282F30E0263061
:101D9000310514F4C90102C080E090E063E070E016
:101DA000ACD0BC01605A7F4FC80176DB65E970E0BA
:101DB00073DB882761EB70E09A5F6EDB00E610E072
:101DC00063E970E069DBB80167DB0D5F1F4F20E05E
:101DD00002371207A9F75CC0E43008F059C0F0E000
:101DE000EE0FFF1FEE0FFF1FE659FF4F0190F0812E
:101DF000E02D9F012F5F3F4F849190E0F9014491C6
:101E0000982F8827840F911D5901F2E0AF0EB11C65
:101E1000F9013196249130E02115310511F420E0CB
:101E200031E0ADEFB0E060E070E0F501E60FF71FE4
:101E3000E491ED936F5F7F4F62177307B1F7A60EC2
:101E4000B71E9B01280F311D2130314008F5EDDA16
:101E500095012F5F3F4FF501849190E0009771F657
:101E6000F90104913196E49110E0102F00270E0F34
:101E7000111D0115110561F018DAF89487E68093B9
:101E800000024DEE51E0B80180E08EDA789431DA4C
:101E90008D2D8C259FE3980F9C3010F48F7031F4BA
:101EA00004DAF8948D2D56DA789423DAFFEFDF16F2
:101EB00041F06FE070E080E090E0BFD9E1DBD82E28
:101EC000E7CFE114F10409F4CACE9AD0C6CEE19965
:101ED000FECF9FBB8EBBE09A99278DB30895262F26
:101EE000E199FECF1CBA9FBB8EBB2DBB0FB6F894F9
:101EF000E29AE19A0FBE019608950024552704C086
:101F0000080E591F880F991F009729F0769567953D
:101F1000B8F37105B9F7802D952F0895F894FFCF88
:101F2000555300474200444500465200495400457D
:101F3000530071027A001E00850054696E792042B8
:101F40004153494300576F7A4D6F6E004B65796D71
:101F500061703A200020284368616E6765207769C8
:101F60007468204374726C2D416C742D4678782906
:101F700000417661696C61626C653A004374726C11
:101F80002D46312020546869732068656C7000000C
:00000001FF
