:10000000DEC7F8C7CECCF6C7F5C781CCF3C7F2C7B9
:10001000F1C7F0C7EFC7EEC7EDC7ECC7EBC70200EB
:10002000E711DF01F62B30CDB275CF32355010CF4E
:100030003463FFCF362800353F1BCF3890A7CF362B
:100040007065656B2800353F2DCF38AD2B3A90A7F2
:10005000CF36726E642800353F4BCF3811A7042B82
:1000600022B4FD35503ECF3C213E2B3A90A7CF36EF
:100070007573722800353F5DCF38CF3A2B3A90A781
:10008000CF402B42CF34CF362800353FA0752142D8
:10009000EC00CF38355376CF44EE002B42631A4341
:1000A000B83AE6025E432146FC4235538E21469023
:1000B000922142B846355397CF44CF362900357246
:1000C000A0CF482142F62B3A63FFCF362900357284
:1000D000B0CF4863FF2B4ACDC8211A2B4C214CAD21
:1000E000934C353FC6CF4E90BACF4C2B50CDE01A33
:1000F0000F8C033572DF21522B4ECF544272656153
:100100006B00FF2B56931BFF0300F9CD6E2B42E6CD
:1001100083354D6D1A31E678354D6D1A30E69A35D6
:10012000561975CF58632142E652355329E3322BD5
:100130003E110007902E2B3E1100082B42213E3528
:10014000506DE9E9993E99422B4211E1042B22219D
:100150002A2B2421302B28ECFEE3062B3059052BCB
:100160003E21427F005E26B4CB93429328213EE697
:1001700001354D525E26B4CBEEFEFF2B4E2B52CDF9
:10018000F4752B4C11000B2B221A21E638355087C1
:10019000E6FFB4E611A01B2B5A214CF35A59A25E7C
:1001A0005A597FCF4E2B301A0F2B4C1A0FF05AFC96
:1001B0004C3572AC215AAD909C215AAD8C0A353F1A
:1001C000EF8C753572D05920CF4E2B301A30E606A1
:1001D0003550CE5E30215AE6012B5A9094E66035B8
:1001E00053941A30E6963550E659A25E5A595CCFC0
:1001F0004E9094215AADCF4E935A909411E706CF6A
:1002000018931BFF0400EC2B5CCDE3CF34CF366793
:100210006F746F00353F12CF38CF5ECF36676F7384
:10022000756200353F26CF3875215AEC00CF5ECF7E
:100230003672657475726E00353F3F1A1C3572391F
:10024000CF60F62B5A63CF62CF36696600353F9692
:10025000CF38DFFCEC02CF64357254CF48EC00CFCE
:1002600038CF367468656E00EE02FC3A35536AEE9C
:1002700002906EEE02B83A355673590435537859E8
:100280000135727D59022B3EEE00F83EDF04353F0A
:100290008ACF66215AAD353F94935A908ACF62CF68
:1002A00036706F6B6500353FB3CF382B68CF362C77
:1002B000003572ADCF48CF38F068CF62CF36726567
:1002C0006D003572C0CF362700353FCF215AAD358E
:1002D0003FCD935A90C3CF62CF366C696E650035BF
:1002E0003FDE11A019CF18110005CF182B66931B04
:1002F000931BFF0500FDCF366E65787400353F37E0
:10030000CF402B6875215AEC001100FF9968F63533
:10031000721CCF442B5ACF382168F6E301F368B83A
:100320003A355632EE002B5ACF3463CF56CF62CFD8
:1003300036666F7200353F6CCF402B68CF34CF36B6
:100340003D0035724FCF48CF38F368CF36746F0019
:1003500035725DCF481100FF99682B6A215AF36A04
:10036000CF38CF62CF36617400353F9ACF383553DE
:100370007BCF445E30CF362C00353F98CF38355395
:100380008BCF44E678355092CF44E3F8E9AD5E3147
:10039000CF62CF3670757400353FA9CF38CF4ECFBE
:1003A00062CF367072696E74003572B8CF363F0016
:1003B000353FC011A013CF18CF366D6F646500357F
:1003C0003FDECF381A21E6203550DC11000B2B22FE
:1003D000213AB4E6CF62CF367361766500353FF6D9
:1003E0001A21E6283553F1CF4411A017CF1811A0D8
:1003F00014CF180600FCCDBB75CF323556B9214657
:100400002B3E2B6AFC6C353F162146CF6EF6B83A70
:1004100035505A216C2B3E213EF6B83A35532D21EA
:100420003ECF70901D35565A2100FC46353F58216D
:100430006A2B42CF6E2B6A2B4C214CADF042934C71
:100440009342214C821F357241216AFC3E3572373E
:100450005901353F702100E680E6C0FC4635726ADE
:10046000CF482146CF702B46215AAD353F8A213ADD
:10047000F33E933E933E215AAD935AF03E35727C43
:1004800090B7213E2B6AFC46353FB1216ACF702BD5
:100490006A2B4C214CADF03E934C933E214C821F75
:1004A00035729B216A2B3E908E2146CF6E2B4621C2
:1004B0003A63FF2B72113F352B2A11A0182B58CF0E
:1004C00018CF502A2A2A2054696E79204241534974
:1004D0004320763300CF5811A0082B1AFF5900F0A3
:1004E0005A5920CF4ECF5859A25E5ACF34215AAD17
:1004F00063FF08A05FCDB6881FE3012B4C3556B3D0
:1005000082E03572B3214CE3A0FF214CFF2B70CD6C
:10051000CEE6202B4C3550CB82603572CB214CE699
:10052000A0FF214CFF2B6ECDFA216C2B3EFC4635F3
:100530003FF3213EF6FC3A3572ED213EE3022B5AA1
:10054000CF56CF66213ECF7090D4CF544C696E65A4
:1005500000931BFF09A05E2B5ECDDE753553B059AD
:1005600000B83A2B3A592DCF4E59002B42213A353B
:1005700053C411D08A993A2B3A59032B42111027B0
:10058000CF7411E803CF745964CF74590ACF7459EA
:1005900030993ACF4E63FF2B76CDEACF5453746136
:1005A000636B002B60CDF7CF5453796E7461780084
:1005B0002B48931BFF0AA05FCDD2211A2B4C215A46
:1005C0002B6A214CAD934C353FCE2B3E215AAD8842
:1005D00020FC3E3572C0935A90A8216A2B5A214CB8
:1005E000AD934C3572C4CF4CCF34CF4C2B36CDFAB3
:1005F0001100802B3AE9E9993AE92B3E215AADE600
:10060000303550F7E60A3553F7E30A993E935A908E
:10061000D9213AFF931BFF0BA0602B32CDD1215A79
:10062000AD353FB38C3A3572B1935ACF66CF48217E
:100630005ACF702B5AFC46353FCE11C01BFC5A35A1
:100640003FCE215AE3022B5ACF66CF54002B62CD06
:10065000FB21002B3E59022B6A213EE6362B3E59E8
:1006600000F03E933E1A3E3572E3216AE601357290
:10067000DB11C01B2B6CFF931BFF0CA0602B78CDF4
:10068000ED751A1CE68D3553ACCF60CF362D003595
:100690003FBBCF7A5900B83A90C1CF362B00CF7A02
:1006A00075EC00CF362B00353FD5CF7AEE00993A66
:1006B000EC0090C4CF362D00353FE6CF7AEE00B87F
:1006C0003AEC0090C4EE002B3A6363FF2B38CDF96F
:1006D000CF5456616C7565002B44931BFF0DA04BE6
:1006E000CDE475CF4A75213AEC00CF362A00353F6C
:1006F000B9CF4AEE00CF7CEC0090A8CF362F003562
:100700003FCACF4AEE00CF3CEC0090A8CF36250080
:10071000353FDDCF4AEE00CF3C213EEC0090A8EE05
:10072000002B3A6363FF2B7A931BFF0EA060CDFB77
:100730002B6AFC3A2B42216A3553B15900B86A2B17
:100740006A213A3553BC5900B83A2B3A3572C1CFB9
:100750004459002B3E2B4C213E993E2B3E216A35BD
:1007600053D4933E216A996A2B6A213EB83A355098
:10077000E52B3E936A214CE301820F3572C521427D
:100780003553F85900B86AFF216AFF931BFF0FA089
:100790005E2B3CCDC72B4C59002B6A59012B3EF8E0
:1007A0004C353FB7216A993A2B6A213A993A2B3A4C
:1007B000213E993E3572AA216AFF2B7CCDE62100AD
:1007C0002B3E215AAD825FE6403550E4E61B35539F
:1007D000E4935AE9993EFFCF482B40CDF7215AAD1B
:1007E0008C203572F6935A90EAFF2B34931BFF103E
:1007F000A060CDFB75216C2B6AFC46353FC9CF56F6
:10080000216AF62B3ACF76936A936A216AAD353F17
:10081000C1CF4E90B5CF58216ACF7090A32B3A210B
:1008200000E680E6C0FC6A353FE2216ACF702B6AA1
:10083000213AE32090C9214EFC523572F9CF76CF90
:100840005020627974657320667265650063FF935A
:100850001BFF11A0602B7ECDC1752B3E213AB83E07
:100860003550B22B3A934290A72142353FBF883092
:10087000CF4E59302B4263FF2B74CDF17559002BAD
:1008800042CF363C00353FD39342CF363E00353F12
:10089000E02142E3042B42CF363D00353FED2142BB
:1008A000E3022B42214263FF2B6411A01BF62B466F
:1008B000E302931BFF12A05D2B5ACDF7211A2B4C9C
:1008C0001A30E6023556AFCF5859005E1C214CADA8
:1008D000353FE3593FCF4E214CAD934C3572BBCFE2
:1008E00050206572726F7200E620F85AF6353FE1CB
:1008F0002B3ACF5020696E2000CF76CF58CF504F83
:100900006B00CF585900CF5C353FEACF72354DEAC6
:10091000112B54CF6613A059215AAD353FF38C3AB1
:10092000353FF3215AAD353FF18C3A353FF18C1804
:100930003572CE935ACF3622003572CC215AAD355E
:100940003FCCCF4E90B990D2CF38CF76CF362C0057
:10095000353FE85920CF4E1A30E60282073572D96A
:1009600090A9CF363B003572A9CF5890F5CF58CF1C
:100970006214A05DCF36696E70757400353FE42156
:100980005AAD353FB1CF4ECF402B68CF34DFFC217D
:100990005AEC02881FE61FF6EC00593FCF4ECF58A5
:1009A000EE00CF5C353FC4CF38F368EE022B5ADF40
:1009B00004CF362C003572A9CF62CF366E65770032
:1009C000353FF6CF782B46CF7ECF540011A015CF00
:1009D0001815A05CCF36636C7300353FCB11000156
:1009E000AD5E31590E2B6ACF58216AE601354DAF05
:1009F000CF58110001AD8C083572BA59085E31CF5D
:100A000062CF366C69737400353FD9CF7ECF62CF29
:100A10003672756E00353FE9CF78F62B3ACF5ECF50
:100A200036656E6400353FF5CF540011A016CF181F
:100A300016A04ECF366C657400CF402B68CF34CFF4
:100A4000362800353FDDCF383553B8CF441A69B862
:100A50003AE6025E692146FC683553CB214690CFC9
:100A60002168B8463553D4CF44CF3629003572DDDE
:100A7000CF48CF363D003572E6CF48CF38F368CF48
:100A80006217A05F21005E27E6602B68CDE8752B1A
:100A9000421A27E3085E271A30E6063553DE590A64
:100AA000F0682168881F8C1F2B682B2459015E2653
:100AB00011060B2B22B4E6353FDA59035E0FCF56F1
:100AC00059085E272142F0689368CF5263FF2B4E8E
:100AD0001A0F8CFF3572EACF7E5920CF4E21522B50
:100AE0004ECF6218A05E11E1042B2259005E305EE9
:100AF000261A31E30F82783572B459085E31212A03
:100B00002B2421302B28B4CB9328B4CB93281A283C
:100B10008CA03572BE11EE012B3E88FFF6B8301A5C
:100B2000193572F7213EADE6783553E88C8090EAAE
:100B30008C08F03E213EE6022B3E8CFE3572DC93A3
:100B4000309330FF19A06059012B241100012B268E
:100B5000CF3875EC00CF362C003572B5CF48CF3882
:100B60002B6A3553C85900B8262B265900B86A2B72
:100B70006AEE002B3E3553DB5900B8242B24590074
:100B8000B83E2B3EB86A3553F8213E2B4C216A2BD8
:100B90003E214C2B6A21242B4C21262B24214C2B2B
:100BA000266311A01ACF181AA060213A3553A81154
:100BB000007890AB1100882B28213E2B4C2B421A39
:100BC0002BF030214CE6012B4C3550FC2142B86A09
:100BD000B86A2B423553D7993E993E2B422126992C
:100BE000302B30212499302B301A30E6A03550EDCF
:100BF0003556EB9331E3405E301A3182783572FA24
:100C0000212899302B3090B3CF621BA006A01B4E39
:100C10004557005B86061100022B1AFF005B860019
:100C200000A00318605F7DF42B8948AB2A0003D134
:100C300001C0458A28C41140048410200088083E61
:100C40003EE127A94EAA569F70B276B73E984EBF96
:100C50007EBE764001400551114A294445B8423DC7
:100C60003A8F3EAA7E313A2E7EB17E907E373E9FED
:100C70007CF1473E0A9B7C217C9F7DDF7D3F7E4C43
:100C80007E6F3ACD7EB226F0433F7C3E78DF7C9B80
:100C90006CFC70B94EF1038220E047082221040069
:100CA000412F1D267D29193F196D19F411BEB20778
:100CB0007DE1162E898B7CE147CF3D073D26194CFF
:100CC000FE5FB2883CEA15E9232F386E38EF3CC945
:100CD00024BEE06D25F113E003E4471023FF7FFFFE
:100CE0000D09FF5A0AFF761BFF2920771621084AB3
:100CF00021761E22082622415222412623A826239D
:100D0000905223065D238C5D23772524085B24778E
:100D10002E25485225081626743626433D260825DA
:100D200027304E27035227045527445D27082E28D5
:100D3000743E28434628434529744629084E2943D2
:100D40003E2A745B2A085D2AFF7C2A4B552B345BB4
:100D50002BFF792B083A2C37412C08362D344A2D9D
:100D6000034E2DFF7B2D48412E37492EFF712E74E7
:100D70003D2F48492F034A2F374530484530FF70F3
:100D800030371631481631FF6931371E32481E326E
:100D9000FF7232372633482633FF7A3337253448FB
:100DA0002534FF6B34372E35482E35FF73353736F3
:100DB00036483636FF7436373D37483D37FF6C3797
:100DC000373E38483E38FF7538374639484639FF90
:100DD0007D3908493A74493A434C3A08413B7441D9
:100DE0003B034C3B43413C3C613C74453D0B553D12
:100DF00043493E7C613E483A3F434A3F744E3F8CF4
:100E00001540411E40A01E40884540904C40425233
:100E100040481541771C417F32427F21437F234464
:100E20007F24457F2B467F34477F33487F43497F6C
:100E30003B4A7F424B7F4B4C773A4D484C4D7F317C
:100E40004E7F444F7F4D50771551481C517F2D5296
:100E50007F1B537F2C547F3C557F2A56481A577767
:100E60001D577F2258441A597B3559731A5A481D09
:100E70005A44355A882E5B943E5B03545BB0545BF6
:100E8000100E5CA00E5C883E5C844E5C015D5C02D2
:100E9000615C94465D884E5D035B5DB05B5D040EF6
:100EA0005E43365E88465E08545E60545E50555E12
:100EB000083E5F744A5F434E5F030E60883D60905A
:100EC0004E60205460445560081561371C613F3204
:100ED000623F21633F23643F24653F2B663F3467B5
:100EE0003F33683F43693F3B6A3F426B3F4B6C3740
:100EF0003A6D084C6D3F316E3F446F3F4D70371572
:100F000071081C713F2D723F1B733F2C743F3C7561
:100F10003F2A76081A77371D773F2278041A793BE3
:100F20003579331A7A081D7A04357A88257B943D01
:100F30007BA0527B43547B500E7CA0167C88367C71
:100F4000415D7C42617CAC617C94457D88567D43EB
:100F50005B7DA05D7D410E7E881E7EA0257E905526
:100F60007E845B7E425D7EFF667FFF05C1FF06C219
:100F7000FF04C3FF0CC4FF03C5FF0BC6FF83C7FFFD
:100F80000AC8FF01C9FF09CAFF78CBFF07CC0000E0
:100F900000003700000000003600000000003800AC
:100FA00002020202020202020202010204081020EE
:100FB00020041008010200000400000000001124B9
:100FC0001FBECFE5D2E0DEBFCDBF10E0A0E6B0E0AF
:100FD000E2E7FFE102C005900D92AE3CB107D9F700
:100FE00021E0AEECB0E001C01D92AF3FB207E1F7E7
:100FF0005CD5BDC705C8823089F018F4813051F046
:101000000895833019F0843009F008958CB58F7DF0
:101010008CBD08958AB58F778ABD08958AB58F7D76
:10102000FBCFCF93DF93282F30E0F901EC54F04F42
:101030008491F901E655F04FD491F901E056F04F53
:10104000C491CC2389F08111D6DFEC2FF0E0EE0FB4
:10105000FF1FE656F04FA591B4918FB7F894EC912D
:10106000D095DE23DC938FBFDF91CF910895CF938E
:10107000DF93282F30E0F901EC54F04F8491F9010F
:10108000E655F04FD491F901E056F04FC491CC23CE
:1010900099F08111B0DFEC2FF0E0EE0FFF1FEC565E
:1010A000F04FA591B491EC91ED2381E090E009F42B
:1010B00080E0DF91CF91089580E090E0FACFCF9368
:1010C000DF9390E0FC01E655F04F24918056904F5D
:1010D000FC0184918823D1F090E0880F991FFC01D6
:1010E000E257F04FA591B491FC01E656F04FC5913F
:1010F000D491623071F49FB7F8943C91822F80951F
:1011000083238C93E8812E2B28839FBFDF91CF917F
:1011100008958FB7F894EC912E2B2C938FBFF6CFB8
:101120003FB7F8948091F1009091F200A091F30004
:10113000B091F40022B708B601FE05C02F3F19F0A8
:101140000196A11DB11D3FBFBA2FA92F982F882747
:10115000BC01CD01620F711D811D911D43E0660F21
:10116000771F881F991F4A95D1F708958F929F92F4
:10117000AF92BF92CF92DF92EF92FF926B017C0110
:10118000CFDF4B015C01C114D104E104F104B1F0E3
:10119000C7DF681979098A099B09683E7340810590
:1011A000910588F321E0C21AD108E108F10888EE20
:1011B000880E83E0981EA11CB11CE5CFFF90EF9034
:1011C000DF90CF90BF90AF909F908F90089584E074
:1011D00028DF61E084E073CF62E084E070DF8BE0C1
:1011E0008093D20008956150770B91E001C0990F70
:1011F0006A95EAF72091FD01382F3923C9F038B3F9
:10120000232B28BB4091F60026B32423E9F750E0B6
:1012100026B330E02095309524233523232BC1F7C6
:10122000969541F79091FE01890F8093FE010895F4
:1012300038B320952323E5CF4091F70050E026B343
:1012400030E02095309524233523232BC1F790914E
:10125000FD0128B387FF17C0922B98BB2091F700A0
:1012600096B39223E9F74091F60096B39423E9F7F9
:1012700050E026B330E02095309524233523232BEE
:10128000C1F767E0B0CF90959223E7CFFF920F931D
:101290001F93CF93DF93F82ED62FC72F8A018CE4AC
:1012A000CBDF66E08F2D9FDF68E08D2F9CDF68E04D
:1012B0008C2F99DFE801045C1F4F68E0899193DF70
:1012C000C017D107D1F7C091FE01C19568E08C2FFE
:1012D0008ADFC093FE0188B39091FD01892B88BB02
:1012E000DF91CF911F910F91FF900895FF920F937F
:1012F0001F93CF93DF93F82E8B0169DFF894D0E032
:10130000C0E08F2D99DF21960C171D07D1F7789437
:1013100063DF88B39091FD01892B88BBDF91CF916A
:101320001F910F91FF900895CF92DF92EF92FF925D
:101330000F931F93CF93DF936C017B0187E680931C
:10134000FE0145DFF894D0E0C0E0CE15DF059CF447
:1013500087010C1B1D0B0D33110514F00CE310E07D
:10136000AE0148505F4FBE016C0D7D1D802F8EDF9A
:10137000C00FD11DEACF78942FDF9091F70086B38C
:101380008923E9F7DF91CF911F910F91FF90EF90A3
:10139000DF90CF9008955F926F927F928F929F928D
:1013A000AF92BF92CF92DF92EF92FF920F931F9373
:1013B000CF93DF937C016B013C018AEF781A8701A0
:1013C00060E2962E7EE2872EA12CB12CD601AA0DCA
:1013D000B11DEC91CB2DD0E0E1110EC0E8EFF0E0B3
:1013E00080E0B81609F455C09081992109F44FC0E6
:1013F0009FE391938F5FF5CFEE0FFF0BE152F44F18
:10140000459154919A01E1E0EB0DF0E082E08B0D03
:1014100090E063E06B0D70E054E0552EB50CC850C1
:10142000DF4FE850FF4F88509F4F68507F4F188222
:1014300037FD14C0432F45954E734083A901E4E066
:1014400055954795EA95E1F74E73FC014083220FCD
:10145000331F2E73FB012083A394B8CF532F5595D0
:1014600055955F71508355E0359527955A95E1F76D
:101470002F71FC0120834F71FB0140838C918A36D0
:1014800059F7EB2DF0E0E950FF4F8082E5CF90E275
:10149000B0CFBE01C80148DF13959694601671065F
:1014A00009F092CFCE018E0D9F1DDF91CF911F913C
:1014B0000F91FF90EF90DF90CF90BF90AF909F90F3
:1014C0008F907F906F905F9008951F93CF93DF93DD
:1014D000182FEB0190E080E00FD5863008F080E017
:1014E00041E050E002C0440F551F8A95E2F790E0BA
:1014F00080E0FC01E152F34FE4912E2F30E0209583
:10150000309524233523232BA1F4E07CE03C11F01B
:10151000E1130FC0FC01E052F34FE491EC171D06FC
:1015200041F48F51934FFC018491DF91CF911F9132
:10153000089503968F3AF2E09F07D9F680E0F5CF41
:101540008F929F92AF92BF92EF92FF920F931F9351
:10155000CF93DF938FB7F8948090ED009090EE00DA
:10156000A090EF00B090F0008FBFC4ECD0E090915D
:10157000E4008091E300981799F1E091E300F0E036
:10158000ED52FF4F80819091E3009F5F9F70909399
:10159000E300682F70E061157105C1F58091EA00E4
:1015A0009091EB00881A990A8091E8009091E900E7
:1015B0008815990508F51092E70049EE841643E076
:1015C000940680F48091E5008095DF91CF911F9182
:1015D0000F91FF90EF90BF90AF909F908F900895E4
:1015E00080E0D7CF8091E5009091E6008827909326
:1015F000E6008093E50005C089EE881683E0980632
:1016000088F78091E7008111E0CFDCCF803E09F4BC
:101610003FC0803F09F446C08A3A09F049C0D7DD8F
:10162000CE010197F1F783E0FCDC61E083E047DD68
:10163000D3DD0AE010E098EEE92E95E0F92E84E083
:1016400016DD892BE1F384E012DD892BE1F7F694B6
:10165000E79462E0E0FC03C083E0E3DC61E083E068
:101660002EDD0150110959F762E083E028DD83E0A7
:10167000FEDC892BE1F784E0FADC892BE1F784E0DA
:10168000F6DC892BE1F383E0F2DC892BC1F36FCF29
:101690008091E5009091E60090689093E600809339
:1016A000E50065CF8091E5009091E6009064F5CF6C
:1016B0000091E5001091E60017FD706E6431710530
:1016C00009F4E7C008F07AC06131710509F4E7C098
:1016D0006231710509F4E0C0603740EE740709F427
:1016E00005C108F09EC06A3540EE740709F40BC1CD
:1016F00008F086C06636710509F4DAC0CFE26A34B4
:1017000040EE740749F17801EE248CE0F82215FDD3
:1017100006C0E114F10409F4D9C014FFD7C080E871
:10172000D4DEC82FEF28C1F0803209F4E7C08F3330
:1017300009F4EBC08FE38C0F8C3008F0D3C06C2F12
:101740006F7009F4CFC000271073012B09F4C7C0D4
:10175000615090E080E0D8D38091E7008C1721F0B1
:101760009092EB008092EA002091E5003091E60033
:1017700036FFC093E70083E290E09093E900809306
:10178000E8008091E7008F3E99F48091EA00909103
:10179000EB00881A990AC4018C509E4F843C49E0A2
:1017A000940710F484EC99E09093E9008093E800AA
:1017B00022273093E6002093E50065C0613140EEBA
:1017C000740709F46FC0643180EE780739F0693529
:1017D000710509F081CF80E092E002C080E098E0DE
:1017E00016FF63C080959095802391239093E60027
:1017F0008093E5008091E5009091E6009F734DCFC6
:101800006B3680EE780709F475C06C3640EE7407CD
:1018100009F46CC0693680EE780709F074CF80E86F
:1018200021C0643740EE740709F462C058F4613790
:1018300040EE7407E9F1623780EE780709F063CF74
:1018400084E010C06A3740EE740709F44DC06D376C
:1018500080EE780709F450C088E0653740EE7407E1
:1018600009F051CF9092EB008092EA0090E016FFD1
:1018700047C080959095802391239093E6008093B4
:10188000E5001092E7008091E5009091E6009F73DB
:10189000AECE80E094E0A4CF80E091E0A1CF80E0E4
:1018A00090E19ECF80E090E29BCF802B912B9ECF4A
:1018B000C80188279C70892B09F4B1CFC8018827FB
:1018C0009073892B09F4ABCFCFEE46CFC8018827A0
:1018D0009370892B11F080E423CF80E021CF80E446
:1018E000C8273ACFCF7138CF80E2BCCF80E4BACFDF
:1018F00081E0B8CF82E0B6CF80E1B4CF8FEFB2CF36
:10190000802B912BBACFCAE027CFCFE725CF1F92EC
:101910000F920FB60F9211242F933F938F939F93A3
:10192000AF93BF938091ED009091EE00A091EF00F6
:10193000B091F0003091EC0026E0230F2D3758F5E0
:101940000296A11DB11D2093EC008093ED009093B1
:10195000EE00A093EF00B093F0008091F100909121
:10196000F200A091F300B091F4000196A11DB11D09
:101970008093F1009093F200A093F300B093F400F1
:10198000BF91AF919F918F913F912F910F900FBE7B
:101990000F901F90189529E8230F0396A11DB11DE4
:1019A000D2CF1F920F920FB60F9211242F933F9315
:1019B0004F935F936F937F938F939F93AF93BF9357
:1019C000EF93FF9386B390E0809590952091F5007A
:1019D00030E082239323892B09F456C083E047DB50
:1019E0002FB7F8944091ED005091EE006091EF0018
:1019F0007091F0002FBF2091D0003091D100FA01FA
:101A0000E21BF30B369720F42091D2002B3040F0EC
:101A100021E030E03093CF002093CE001092D2002E
:101A20005093D1004093D000AC0155273091D200A3
:101A3000CA01032E02C0880F991F0A94E2F7609131
:101A4000CE007091CF00862B972B842795279093FB
:101A5000CF008093CE003A30A1F4E091E400F0E0B2
:101A6000ED52FF4FAC015595479540832091E4001E
:101A70002F5F2F704091E300241719F080FD209311
:101A8000E4003F5F3093D200FF91EF91BF91AF919F
:101A90009F918F917F916F915F914F913F912F9186
:101AA0000F900FBE0F901F901895CF93DF93CDB777
:101AB000DEB763970FB6F894DEBF0FBECDBF789444
:101AC0008AB582608ABD8AB581608ABD83B782602B
:101AD00083BF83B7816083BF89B7826089BF80B7C6
:101AE000826080BF80B7816080BF329A319A30981F
:101AF000379A8CB580648CBD84E08093FD0182E0D0
:101B00008093F70081E08093F600C29A8091FD01F6
:101B100087BB80E092E09093FA018093F9016EE533
:101B200071E080E090E022DB62E083E0C8DA54DB21
:101B3000EEEAFFE0E491E093F5008BB780628BBFA3
:101B400085B39091F500892B85BB66246394712C35
:101B5000FAE18F2E912C3BDBF8944091F700642F33
:101B600070E030E020E086B390E080959095862389
:101B70009723892B09F4DDC021503109A1F710E02A
:101B800078942ADB173051F0193009F0F2C08091B7
:101B9000FC019091FB01892B8093FC011091FB01CA
:101BA000110F1093FB01E0906000F09061008091B4
:101BB000F9019091FA01E816F90640F08091F801D8
:101BC000882321F06AE070E083E090DB111124C0EB
:101BD0006091FC01C70101969093610080936000C1
:101BE000C70192D18091FC018A3009F0BBC06FEF30
:101BF000809160009091610087D18091F8018111FE
:101C000004C070926100609260001092F80110921E
:101C1000FC0181E08093FB016FE070E080E090E0E8
:101C2000A5DA8EDC582E4FEF841709F45EC1E0E48C
:101C3000E8278FE38E0F8C3008F05CC0EF7009F45A
:101C400059C0E13009F09DC083E1EAEBF0E0DE012C
:101C5000119601900D928A95E1F7BE016F5F7F4F5B
:101C600080E098E098DB1A8610E2188722E32F8341
:101C70008827BE016F5F7F4F9A5F8DDB6CE770E056
:101C80008ADB188723E32F838827BE016F5F7F4F8E
:101C90009A5F81DB62E870E07EDB88276AE870E0AB
:101CA0009A5F79DB8C0190E080E026D1863008F0E5
:101CB00080E090E063E070E035D1BC016E597F4F69
:101CC000C80169DB63E970E066DB88276FEA70E0D2
:101CD0009A5F61DB02E610E074E7E72E70E0F72E12
:101CE00061E970E058DBB80156DB0D5F1F4FE0166D
:101CF000F106B1F710E4852D81279FE3980F9C3002
:101D000010F48F7031F463DAF894852D95DA7894B5
:101D100063DA4FEF541609F4E8C06FE070E080E03A
:101D200090E024DA0DDC582EE6CF2150310909F479
:101D300026CF86B38423C9F75091F60010E0252FF3
:101D400030E086B38523E9F786B3842309F018CF02
:101D500086B390E08095909582239323892BC1F7D9
:101D60001F5FEFCF8D3009F452CF81E08093F801EF
:101D70004ECF1092FC0181E08093FB011092F8019C
:101D80004BCFE43008F0B6CFE250FF0BEE0FFF1F51
:101D9000EE0FFF1FEC58FF4F0190F081E02D3097C0
:101DA00009F45FC0BF016F5F7F4FE4912E2F30E0D9
:101DB000FB018491322F2227280F311D7B01F2E095
:101DC000EF0EF11C6F5F7F4FFB016491C62ED12C8B
:101DD000C114D10419F4C12CDD24D394F701A8EF68
:101DE000B0E084918D933196CD01885F90408C1541
:101DF0009D05BCF387010C0D1D1DC601820F911DB1
:101E00008130914008F076CFB601C9018DDAB60174
:101E10006F5F7F4F6E0D7F1DF801249130E021151B
:101E2000310509F0C5CFFB0184910E5F1F4FF8010A
:101E30000491682F70E0762F6627060F172F111D6B
:101E40000115110509F456CFC2D9F89487E680939D
:101E5000FE0148EE51E0B80180E018DA7894BCD970
:101E600049CF01E010E082E3A82EB12CF12CE12C47
:101E7000C80142D0482E6701FFEFCF1ADF0AEF28D2
:101E800021F44FEF841709F435CF62E070E0842D20
:101E90002DDA8DE0481207C0C60162E370E042D03F
:101EA000845D9E4F5C01C601B4014DD0892BC1F405
:101EB0006CE271E080E090E059D9EAE076014E12E0
:101EC00008C0B5010B2C000C880B990B4FD9F12CD5
:101ED000E12C0F5F1F4F0115F2E01F0749F60ACFF3
:101EE00064E170E080E090E0E7CF80E090E0892B53
:101EF00009F431CE85D02FCEE199FECF9FBB8EBBAA
:101F0000E09A99278DB30895262FE199FECF1CBA48
:101F10009FBB8EBB2DBB0FB6F894E29AE19A0FBE21
:101F2000019608950024552704C0080E591F880FF4
:101F3000991F009729F076956795B8F37105B9F761
:101F4000802D952F0895AA1BBB1B51E107C0AA1F26
:101F5000BB1FA617B70710F0A61BB70B881F991F4A
:101F60005A95A9F780959095BC01CD010895F894F4
:021F7000FFCFA1
:101F7200010055530047420044450046520049546F
:101F8200004553001E007C0000008200424153497C
:101F920043002D53415645442D004B65796D6170C8
:101FA2003A200020284368616E676520776974686B
:101FB200204374726C2D416C742D4678782900414F
:101FC2007661696C61626C653A004374726C2D468D
:0E1FD200312020546869732068656C7000002F
:00000001FF
