:10000000D2C7ECC7E5CCEAC7E9C798CCE7C7E6C7D3
:10001000E5C7E4C7E3C7E2C7E1C7E0C7DFC702003F
:10002000E711DF01F62B30CDB275CF32355010CF4E
:100030003463FFCF362800353F1BCF3890A7CF362B
:100040007065656B2800353F2DCF38AD2B3A90A7F2
:10005000CF36726E642800353F4BCF3811A7042B82
:1000600022B4FD35503ECF3C213E2B3A90A7CF36EF
:100070007573722800353F5DCF38CF3A2B3A90A781
:10008000CF402B42CF34CF362800353FA0752142D8
:10009000EC00CF38355376CF44EE002B42631A4341
:1000A000B83AE6025E432146FC4235538E21469023
:1000B000922142B846355397CF44CF362900357246
:1000C000A0CF482142F62B3A63FFCF362900357284
:1000D000B0CF4863FF2B4ACDC8211A2B4C214CAD21
:1000E000934C353FC6CF4E90BACF4C2B50CDE01A33
:1000F0000F8C033572DF21522B4ECF544272656153
:100100006B00FF2B56931BFF0300F7CD6E2B42E6CF
:100110007F354D6D1A31E678354D6D1A30E69A35DA
:10012000561975CF58632142E652355329E3322BD5
:100130003E110007902E2B3E1100082B42213E3528
:10014000506DE9E9993E99422B4211E1042B22219D
:100150002A2B2421302B28ECFEE3062B3059052BCB
:100160003E21427F005E26B4CB93429328213EE697
:1001700001354D525E26B4CBEEFEFF2B4E2B52CDF9
:10018000F2752B4C11A01B2B5A214CF35A59A25E2D
:100190005A597FCF4E2B301A0F2B4C1A0FF05AFCA6
:1001A0004C35729C215AAD908C215AAD8C0A353F4A
:1001B000DF8C753572C05920CF4E2B301A30E606D1
:1001C0003550BE5E30215AE6012B5A9084E66035E8
:1001D00053841A30E6963550D659A25E5A595CCFF0
:1001E0004E9084215AADCF4E935A9084F05A5920A4
:1001F000CF4ECF5859A25E5ACF34215AAD63FF93E8
:100200001BFF0400EC2B5CCDE3CF34CF36676F745B
:100210006F00353F12CF38CF5ECF36676F73756290
:1002200000353F26CF3875215AEC00CF5ECF3672AD
:10023000657475726E00353F3F1A1C357239CF6098
:10024000F62B5A63CF62CF36696600353F96CF38BA
:10025000DFFCEC02CF64357254CF48EC00CF38CFCE
:10026000367468656E00EE02FC3A35536AEE029011
:100270006EEE02B83A355673590435537859013544
:10028000727D59022B3EEE00F83EDF04353F8ACFE7
:1002900066215AAD353F94935A908ACF62CF36701B
:1002A0006F6B6500353FB3CF382B68CF362C0035E8
:1002B00072ADCF48CF38F068CF62CF3672656D002F
:1002C0003572C0CF362700353FCF215AAD353FCDEF
:1002D000935A90C3CF62CF366C696E6500353FDEAE
:1002E00011A019CF18110005CF182B66931B931B73
:1002F000FF0500FDCF366E65787400353F37CF407F
:100300002B6875215AEC001100FF9968F635721CB4
:10031000CF442B5ACF382168F6E301F368B83A3559
:100320005632EE002B5ACF3463CF56CF62CF3666AB
:100330006F7200353F6CCF402B68CF34CF363D0015
:1003400035724FCF48CF38F368CF36746F003572AF
:100350005DCF481100FF99682B6A215AF36ACF38A4
:10036000CF62CF36617400353F9ACF3835537BCF9B
:10037000445E30CF362C00353F98CF3835538BCF85
:1003800044E678355092CF44E3F8E9AD5E31CF6270
:10039000CF3670757400353FA9CF38CF4ECF62CFBE
:1003A000367072696E74003572B8CF363F00353FD3
:1003B000C011A013CF18CF366D6F646500353FDED6
:1003C000CF381A21E6203550DC11000B2B22213AC0
:1003D000B4E6CF62CF367361766500353FF61A21F9
:1003E000E6283553F1CF4411A017CF1811A014CF30
:1003F000180600E7CDBB75CF323556B921462B3EE6
:100400002B6AFC6C353F162146CF6EF6B83A355054
:100410005A216C2B3E213EF6B83A35532D213ECF62
:1004200070901D35565A2100FC46353F58216A2BE5
:1004300042CF6E2B6A2B4C214CADF042934C934231
:10044000214C821F357241216AFC3E3572375901B9
:10045000353F702100E680E6C0FC4635726ACF4821
:100460002146CF702B46215AAD353F8A213AF33EC3
:10047000933E933E215AAD935AF03E35727C90B72D
:10048000213E2B6AFC46353FB1216ACF702B6A2B87
:100490004C214CADF03E934C933E214C821F357263
:1004A0009B216A2B3E908E2146CF6E2B46213A63CC
:1004B000FF2B72113F352B2A11A0182B58CF18CFC4
:1004C000502A2A2A2054696E7920424153494320F8
:1004D000763200CF5811A0082B1AFF08A05FCDB6C6
:1004E000881FE3012B4C3556B382E03572B3214CA3
:1004F000E3A0FF214CFF2B70CDCEE6202B4C3550D6
:10050000CB82603572CB214CE6A0FF214CFF2B6ED5
:10051000CDFA216C2B3EFC46353FF3213EF6FC3AEA
:100520003572ED213EE3022B5ACF56CF66213ECFE6
:100530007090D4CF544C696E6500931BFF09A05E88
:100540002B5ECDDE753553B05900B83A2B3A592D94
:10055000CF4E59002B42213A3553C411D08A993AD3
:100560002B3A59032B42111027CF7411E803CF7493
:100570005964CF74590ACF745930993ACF4E63FFFA
:100580002B76CDEACF54537461636B002B60CDF7AB
:10059000CF5453796E746178002B48931BFF0AA0E7
:1005A0005FCDD2211A2B4C215A2B6A214CAD934C92
:1005B000353FCE2B3E215AAD8820FC3E3572C0938C
:1005C0005A90A8216A2B5A214CAD934C3572C4CF56
:1005D0004CCF34CF4C2B36CDFA1100802B3AE9E9C1
:1005E000993AE92B3E215AADE6303550F7E60A3507
:1005F00053F7E30A993E935A90D9213AFF931BFF90
:100600000BA0602B32CDD1215AAD353FB38C3A359A
:1006100072B1935ACF66CF48215ACF702B5AFC46FD
:10062000353FCE11C01BFC5A353FCE215AE3022B79
:100630005ACF66CF54002B62CDFB21002B3E5902CE
:100640002B6A213EE6362B3E5900F03E933E1A3E81
:100650003572E3216AE6013572DB11C01B2B6CFF9A
:10066000931BFF0CA0602B78CDED751A1CE68D3521
:1006700053ACCF60CF362D00353FBBCF7A5900B891
:100680003A90C1CF362B00CF7A75EC00CF362B00D5
:10069000353FD5CF7AEE00993AEC0090C4CF362D95
:1006A00000353FE6CF7AEE00B83AEC0090C4EE0099
:1006B0002B3A6363FF2B38CDF9CF5456616C7565C7
:1006C000002B44931BFF0DA04BCDE475CF4A752141
:1006D0003AEC00CF362A00353FB9CF4AEE00CF7C46
:1006E000EC0090A8CF362F00353FCACF4AEE00CF9E
:1006F0003CEC0090A8CF362500353FDDCF4AEE0018
:10070000CF3C213EEC0090A8EE002B3A6363FF2B18
:100710007A931BFF0EA060CDFB2B6AFC3A2B422183
:100720006A3553B15900B86A2B6A213A3553BC591E
:1007300000B83A2B3A3572C1CF4459002B3E2B4CAE
:10074000213E993E2B3E216A3553D4933E216A992E
:100750006A2B6A213EB83A3550E52B3E936A214C0C
:10076000E301820F3572C521423553F85900B86A4A
:10077000FF216AFF931BFF0FA05E2B3CCDC72B4CC4
:1007800059002B6A59012B3EF84C353FB7216A9925
:100790003A2B6A213A993A2B3A213E993E3572AA70
:1007A000216AFF2B7CCDE621002B3E215AAD825FD2
:1007B000E6403550E4E61B3553E4935AE9993EFF91
:1007C000CF482B40CDF7215AAD8C203572F6935A85
:1007D00090EAFF2B34931BFF10A060CDFB75216CBA
:1007E0002B6AFC46353FC9CF56216AF62B3ACF76A5
:1007F000936A936A216AAD353FC1CF4E90B5CF5809
:10080000216ACF7090A32B3A2100E680E6C0FC6AF3
:10081000353FE2216ACF702B6A213AE32090C9214B
:100820004EFC523572F9CF76CF50206279746573E1
:1008300020667265650063FF931BFF11A0602B7E2D
:10084000CDC1752B3E213AB83E3550B22B3A93427A
:1008500090A72142353FBF8830CF4E59302B42639D
:10086000FF2B74CDF17559002B42CF363C00353F3C
:10087000D39342CF363E00353FE02142E3042B4282
:10088000CF363D00353FED2142E3022B422142634A
:10089000FF2B6411A01BF62B46E302931BFF12A053
:1008A0005D2B5ACDF7211A2B4C1A30E6023556AF84
:1008B000CF5859005E1C214CAD353FE3593FCF4E18
:1008C000214CAD934C3572BBCF50206572726F7264
:1008D00000E620F85AF6353FE12B3ACF5020696EFA
:1008E0002000CF76CF58CF504F6B00CF585900CF54
:1008F0005C353FEACF72354DEA112B54CF6613A019
:1009000057215AAD353FF18C3A353FF1215AAD357B
:100910003FEF8C3A353FEF8C183572CE935ACF3675
:1009200022003572CC215AAD353FCCCF4E90B990D4
:10093000D2CF38CF76CF362C00353FE65920CF4E78
:100940001A3082073572D990A9CF363B003572A98B
:10095000CF5890F3CF58CF6214A05DCF36696E7038
:10096000757400353FE4215AAD353FB1CF4ECF40CD
:100970002B68CF34DFFC215AEC02881FE61FF6EC0F
:1009800000593FCF4ECF58EE00CF5C353FC4CF3833
:10099000F368EE022B5ADF04CF362C003572A9CF54
:1009A00062CF366E657700353FF6CF782B46CF7E27
:1009B000CF540011A015CF1815A05CCF36636C730F
:1009C00000353FCB110001AD5E31590E2B6ACF5877
:1009D000216AE601354DAFCF58110001AD8C0835C5
:1009E00072BA59085E31CF62CF366C6973740035C4
:1009F0003FD9CF7ECF62CF3672756E00353FE9CFDB
:100A000078F62B3ACF5ECF36656E6400353FF5CF72
:100A1000540011A016CF1816A04ECF366C65740086
:100A2000CF402B68CF34CF362800353FDDCF383567
:100A300053B8CF441A69B83AE6025E692146FC68A9
:100A40003553CB214690CF2168B8463553D4CF4497
:100A5000CF3629003572DDCF48CF363D003572E6FE
:100A6000CF48CF38F368CF6217A05F21005E27E63A
:100A7000602B68CDE8752B421A27E3085E271A30F1
:100A8000E6063553DE590AF0682168881F8C1F2B53
:100A9000682B2459015E2611060B2B22B4E6353F44
:100AA000DA59035E0FCF5659085E272142F068934A
:100AB00068CF5263FF2B4E1A0F8CFF3572EACF7E40
:100AC0005920CF4E21522B4ECF6218A05E11E10467
:100AD0002B2259005E305E261A31E30F8278357280
:100AE000B459085E31212A2B2421302B28B4CB9312
:100AF00028B4CB93281A288CA03572BE11EE012B96
:100B00003E88FFF6B8301A193572F7213EADE67807
:100B10003553E88C8090EA8C08F03E213EE6022BAB
:100B20003E8CFE3572DC93309330FF19A060590182
:100B30002B241100012B26CF3875EC00CF362C006A
:100B40003572B5CF48CF382B6A3553C85900B8260F
:100B50002B265900B86A2B6AEE002B3E3553DB5921
:100B600000B8242B245900B83E2B3EB86A3553F800
:100B7000213E2B4C216A2B3E214C2B6A21242B4CED
:100B800021262B24214C2B266311A01ACF181AA042
:100B900060213A3553A811007890AB1100882B28BA
:100BA000213E2B4C2B421A2BF030214CE6012B4CD2
:100BB0003550FC2142B86AB86A2B423553D7993E6A
:100BC000993E2B42212699302B30212499302B300D
:100BD0001A30E6A03550ED3556EB9331E3405E30E8
:100BE0001A3182783572FA212899302B3090B3CFA0
:100BF000621BA006A01B4E4557005B860611000233
:100C00002B1AFF005B860000A00318605F7DF42BA9
:100C10008948AB2A0003D101C0458A28C411400489
:100C20008410200088083E3EE127A94EAA569F70F6
:100C3000B276B73E984EBF7EBE7640014005511158
:100C40004A294445B8423D3A8F3EAA7E313A2E7E2B
:100C5000B17E907E373E9F7CF1473E0A9B7C217C93
:100C60009F7DDF7D3F7E4C7E6F3ACD7EB226F04386
:100C70003F7C3E78DF7C9B6CFC70B94EF103822098
:100C8000E0470822210400412F1D267D29193F1924
:100C90006D19F411BEB2077DE1162E898B7CE147F8
:100CA000CF3D073D26194CFE5FB2883CEA15E9238B
:100CB0002F386E38EF3CC924BEE06D25F113E003F8
:100CC000E4471023FF7FFF0D09FF5A0AFF761BFF41
:100CD0002920771621084A21761E22082622415211
:100CE00022412623A82623905223065D238C5D23D0
:100CF000772524085B24772E25485225081626746C
:100D00003626433D26082527304E27035227045513
:100D100027445D27082E28743E284346284345294A
:100D2000744629084E29433E2A745B2A085D2AFF2F
:100D30007C2A4B552B345B2BFF792B083A2C3741FF
:100D40002C08362D344A2D034E2DFF7B2D48412E85
:100D500037492EFF712E743D2F48492F034A2F37F4
:100D60004530484530FF7030371631481631FF693D
:100D700031371E32481E32FF72323726334826334F
:100D8000FF7A33372534482534FF6B34372E354806
:100D90002E35FF7335373636483636FF7436373DD5
:100DA00037483D37FF6C37373E38483E38FF753897
:100DB000374639484639FF7D3908493A74493A433C
:100DC0004C3A08413B74413B034C3B43413C3C6142
:100DD0003C74453D0B553D43493E7C613E483A3F9E
:100DE000434A3F744E3F8C1540411E40A01E408830
:100DF0004540904C40425240481541771C417F325B
:100E0000427F21437F23447F24457F2B467F344705
:100E10007F33487F43497F3B4A7F424B7F4B4C7730
:100E20003A4D484C4D7F314E7F444F7F4D507715A2
:100E300051481C517F2D527F1B537F2C547F3C55B2
:100E40007F2A56481A57771D577F2258441A597BD4
:100E50003559731A5A481D5A44355A882E5B943EA8
:100E60005B03545BB0545B100E5CA00E5C883E5C70
:100E7000844E5C015D5C02615C94465D884E5D035E
:100E80005B5DB05B5D040E5E43365E88465E085473
:100E90005E60545E50555E083E5F744A5F434E5F2D
:100EA000030E60883D60904E602054604455600899
:100EB0001561371C613F32623F21633F23643F2449
:100EC000653F2B663F34673F33683F43693F3B6A6A
:100ED0003F426B3F4B6C373A6D084C6D3F316E3F74
:100EE000446F3F4D70371571081C713F2D723F1BC9
:100EF000733F2C743F3C753F2A76081A77371D776D
:100F00003F2278041A793B3579331A7A081D7A041E
:100F1000357A88257B943D7BA0527B43547B500ED1
:100F20007CA0167C88367C415D7C42617CAC617C17
:100F300094457D88567D435B7DA05D7D410E7E8816
:100F40001E7EA0257E90557E845B7E425D7EFF6680
:100F50007FFF05C1FF06C2FF04C3FF0CC4FF03C52A
:100F6000FF0BC6FF83C7FF0AC8FF01C9FF09CAFFFD
:100F700078CBFF07CC0000000037000000000036EF
:100F80000000000000380002020202020202020217
:100F900002010204081020200410080102000004CD
:100FA00000000000000011241FBECFE5D2E0DEBF2C
:100FB000CDBF10E0A0E6B0E0E2E1FFE102C00590A5
:100FC0000D92AE3CB107D9F721E0AEECB0E001C024
:100FD0001D92AD3FB207E1F785D599C711C88230A0
:100FE00081F018F4813051F00895833019F0843085
:100FF00009F008958CB58F7D8CBD08958AB58F77E3
:1010000002C08AB58F7D8ABD0895CF93DF93282FC4
:1010100030E0F901E556F04F8491F901EF56F04FB9
:10102000D491F901E957F04FC491CC2391F081118B
:10103000D6DFEC2FF0E0EE0FFF1FEF57F04FA5913A
:10104000B4918FB7F8949C91ED2FE095E923EC9340
:101050008FBFDF91CF910895CF93DF93282F30E09A
:10106000F901E556F04F8491F901EF56F04FD49114
:10107000F901E957F04FC491CC2389F08111AFDF1A
:10108000EC2FF0E0EE0FFF1FE558F04FA591B49163
:10109000EC91ED2381E090E021F480E002C080E05B
:1010A00090E0DF91CF910895CF93DF9390E0FC0122
:1010B000EF56F04F2491FC01E957F04F84918823BB
:1010C00061F190E0880F991FFC01EB58F04FC5913A
:1010D000D491FC01EF57F04FA591B491611109C073
:1010E0009FB7F8948881209582238883EC912E23E2
:1010F0000BC0623061F49FB7F8943881822F8095DD
:1011000083238883EC912E2B2C939FBF06C08FB72F
:10111000F894E8812E2B28838FBFDF91CF9108951B
:101120003FB7F8948091EF009091F000A091F1000A
:10113000B091F20022B708B601FE05C02F3F19F0AA
:101140000196A11DB11D3FBFBA2FA92F982F882747
:10115000820F911DA11DB11DBC01CD0143E0660FA1
:10116000771F881F991F4A95D1F708958F929F92F4
:10117000AF92BF92CF92DF92EF92FF926B017C0110
:10118000CFDF4B015C01C114D104E104F104E9F0AB
:10119000C7DFDC01CB0188199909AA09BB09883E80
:1011A0009340A105B10578F321E0C21AD108E10806
:1011B000F10888EE880E83E0981EA11CB11CC114B2
:1011C000D104E104F10421F7DECFFF90EF90DF902E
:1011D000CF90BF90AF909F908F90089584E015DFDF
:1011E00061E084E061CF62E084E05EDF8BE08093C9
:1011F000D2000895615091E001C0990F6A95EAF715
:101200009923E1F02091FB01392F382319F038B3ED
:10121000232B03C038B32095232328BB4091F4002F
:1012200026B32423E9F750E026B330E0209530952B
:1012300024233523232BC1F79695E2CF9091FC010F
:10124000890F8093FC0108954091F50050E026B38A
:1012500030E02095309524233523232BC1F790913E
:10126000FB0128B387FF02C0922B02C09095922306
:1012700098BB2091F50096B39223E9F74091F400D2
:1012800096B39423E9F750E026B330E020953095EB
:1012900024233523232BC1F767E0ACCFEF92FF92D5
:1012A0000F931F93CF93DF9300D01F92CDB7DEB77C
:1012B000182F062F8CE44A835B837983C5DF66E0B1
:1012C000812F98DF68E0802F95DF68E07981872F94
:1012D00091DF4A81E42E5B81F52E8701045C1F4F6C
:1012E00068E0F70181917F0185DFE016F106C1F723
:1012F0001091FC01119568E0812F7CDF1093FC01B7
:1013000098B38091FB01892B88BB0F900F900F90B1
:10131000DF91CF911F910F91FF90EF900895FF9271
:101320000F931F93CF93DF93F82E8B0157DFF89421
:10133000C0E0D0E0C017D10724F48F2D85DF2196BF
:10134000F9CF789450DF98B38091FB01892B88BB4B
:10135000DF91CF911F910F91FF900895CF92DF926F
:10136000EF92FF920F931F93CF93DF936C017B015A
:1013700087E68093FC0132DFF894C0E0D0E0CE1520
:10138000DF059CF487010C1B1D0B0D33110514F0B8
:101390000CE310E0AE014A505F4FBE016C0D7D1DA5
:1013A000802F7CDFC00FD11DEACF78941CDF909195
:1013B000F50086B38923E9F7DF91CF911F910F9153
:1013C000FF90EF90DF90CF9008955F926F927F92A1
:1013D0008F929F92AF92BF92CF92DF92EF92FF9245
:1013E0000F931F93CF93DF936C017B01EC018C0172
:1013F0001A5FB0E29B2E8EE2582E96EF692E90E097
:10140000792E74E0812C482D440F440F5701A80C0D
:10141000B11CD501EC91EE2309F45BC0EE0FFF0B7C
:10142000EA53F44FA591B4919D0150E06DEF670F21
:101430008EEF870F9FEF970FB7FD21C0DA01AA50FB
:10144000BF4F1C92E62FF0E0EA50FF4F432F459527
:101450004E734083E82FF0E0EA50FF4FA90164E0AB
:10146000559547956A95E1F74E734083E92FF0E073
:10147000EA50FF4F220F331F2E73208327C04A509C
:101480005F4FFA011082E62FF0E0EA50FF4F432F42
:10149000459545954F714083E82FF0E0EA50FF4FA6
:1014A00085E0359527958A95E1F72F712083E92FFF
:1014B000F0E0EA50FF4FAF71A083D5018C918A36DE
:1014C00029F4E72FF0E0EB50FF4F508283947C5FCC
:1014D0009ACFE6EFF0E08E2F8619841740F48081D2
:1014E000892111F480E201C08FE38193F4CFA42E0F
:1014F000B12CB501CE0132DFD3959694C017D10738
:1015000009F07FCFC5018C0D9D1DDF91CF911F91FB
:101510000F91FF90EF90DF90CF90BF90AF909F9092
:101520008F907F906F905F9008951F93CF93DF937C
:10153000182FEB0180E090E0C3D4863010F080E0FB
:1015400090E0A1E0B0E002C0AA0FBB1F8A95E2F7CD
:1015500066EC7CE040E050E0FB019491292F30E004
:10156000209530952A233B23232BA9F4907C903C93
:1015700011F0911310C0FB013196249130E02C172B
:101580003D0749F4CA0163E070E0B0D48853934F3B
:10159000FC01849108C04F5F5F4F6D5F7F4F453EF8
:1015A0005105D1F680E0DF91CF911F910895AF9260
:1015B000BF92CF92DF92EF92FF920F931F93CF9340
:1015C000DF938FB7F894C090EB00D090EC00E090E0
:1015D000ED00F090EE008FBF04EC10E09091E4007D
:1015E0008091E300981779F0E091E300F0E0ED528C
:1015F000FF4F20818091E30090E001968F70992742
:101600008093E30001C020E0622F70E06115710556
:1016100049F58091E9008F3E19F484EC99E002C00D
:1016200083E290E02091E7003091E800C21AD30AEB
:101630008C159D0558F41092E90089EEC81683E0D8
:10164000D80650F48091E50080956DC189EEC816EA
:1016500083E0D80608F4B9C08091E5009091E600D7
:101660008827AFC0203EB1F0203FD1F02A3A09F0E0
:1016700046C0B4DDC8010197F1F783E0C6DC61E044
:1016800083E012DDB0DDCAE0D0E098EEA92E95E04F
:10169000B92E0CC08091E5009091E600906868C07A
:1016A0008091E5009091E600906462C084E0D4DC13
:1016B000892BE1F384E0D0DC892BE1F7B694A79481
:1016C000A0FE02C062E003C083E09FDC61E083E033
:1016D000EBDC219759F762E083E0E6DC83E0BCDCD9
:1016E000892BE1F784E0B8DC892BE1F784E0B4DCF6
:1016F000892BE1F383E0B0DC892BC1F36FCFC0917C
:10170000E500D091E600D7FD706E6431710509F4F3
:1017100062C048F461317105D1F06231710569F53B
:1017200080E091E016C0613180EE780751F06431BD
:1017300080EE780749F069357105F9F480E092E0B0
:1017400008C080E090E205C080E098E002C080E040
:1017500090E1D6FF43C0809590958C239D23909374
:10176000E6008093E5008091E5009091E6009F738C
:101770009093E6008093E50031CFD092E800C092CC
:10178000E700603780EE7807E1F158F1643780EECA
:10179000780709F088C091E0892F90E0D6FFAEC0AD
:1017A0009C0120953095C9018C239D239093E600E0
:1017B0008093E5001092E9008091E5009091E600A9
:1017C0009F739093E6008093E5008091E900882361
:1017D00009F438CFA8C080E094E0BBCF8C2B9D2BC0
:1017E000BECF6A3580EE780709F482C060F06B36B0
:1017F00080EE780709F47AC06C3680EE780709F03D
:101800004DC090E4C9CF6636710569F4CE018827D2
:101810009C70892B09F46EC0CE0188279073892BA8
:1018200009F06FC067C06A3480EE780709F46DC0B4
:101830007E01EE248CE0F822D5FD05C0E114F10410
:1018400021F0D4FF02C080E808C0CE018827937041
:10185000892B11F080E401C080E067DE182FEF28AB
:1018600009F454C0803209F447C08F3309F44BC0E7
:101870008FE3810F8C3080F4612F6F7069F0CE019F
:1018800088279073892B29F0615080E090E020D365
:101890003DC080E418273AC01F7138C0693680EE19
:1018A000780741F1C5CF653780EE780760F461377E
:1018B00080EE780709F4AACF623780EE780709F046
:1018C000B7CF94E069CF6A3780EE780711F490E2E1
:1018D00063CF6D3780EE780711F490E15DCF653707
:1018E00080EE780709F0A4CF98E056CF92E054CF6D
:1018F0001AE00CC090E850CF9FEF4ECF8C2B9D2B61
:1019000055CF1FEE03C01FE701C01FE28091E50025
:101910009091E60096FF1093E90088279093E600E7
:101920008093E50049CFDF91CF911F910F91FF90F8
:10193000EF90DF90CF90BF90AF9008951F920F92DD
:101940000FB60F9211242F933F938F939F93AF93D2
:10195000BF938091EB009091EC00A091ED00B091CD
:10196000EE003091EA0026E0230F2D3720F4029696
:10197000A11DB11D05C029E8230F0396A11DB11DAE
:101980002093EA008093EB009093EC00A093ED008D
:10199000B093EE008091EF009091F000A091F100E3
:1019A000B091F2000196A11DB11D8093EF009093BC
:1019B000F000A093F100B093F200BF91AF919F911E
:1019C0008F913F912F910F900FBE0F901F90189500
:1019D0001F920F920FB60F9211242F933F934F93A4
:1019E0005F936F937F938F939F93AF93BF93EF9387
:1019F000FF9386B390E0809590952091F30030E0BE
:101A000082239323892B09F45CC083E025DB2FB765
:101A1000F8944091EB005091EC006091ED007091D2
:101A2000EE002FBF2091D0003091D100FA01E21BCF
:101A3000F30B369720F42091D2002B3040F021E0B8
:101A400030E03093CF002093CE001092D20050931C
:101A5000D1004093D0009C0133274091D200B901BE
:101A6000042E02C0660F771F0A94E2F78091CE0021
:101A70009091CF00862B972B822793279093CF00AE
:101A80008093CE004A30B1F4E091E400F0E0ED52F2
:101A9000FF4F9C013595279520832091E40030E08D
:101AA0002F5F3F4F2F7033275091E300521711F0F3
:101AB00080FD04C04F5F4093D20003C02093E40038
:101AC000F9CFFF91EF91BF91AF919F918F917F914E
:101AD0006F915F914F913F912F910F900FBE0F909B
:101AE0001F901895CF93DF93CDB7DEB764970FB6ED
:101AF000F894DEBF0FBECDBF78948AB582608ABDF0
:101B00008AB581608ABD83B7826083BF83B78160F5
:101B100083BF89B7826089BF80B7826080BF80B78A
:101B2000816080BF329A319A3098379A8CB5806440
:101B30008CBD84E08093FB0182E08093F50081E01E
:101B40008093F400C29A8091FB0187BB80E092E011
:101B50009093F8018093F7016EE571E080E090E0EA
:101B600005DB62E083E0A0DA3EDBE5E9FFE0E4913B
:101B7000E093F3008BB780628BBF95B38091F30045
:101B8000892B85BBEE24E394F12C30E4C32E26DBB5
:101B9000F8944091F500642F70E020E030E086B3C7
:101BA00090E08095909586239723892B39F02150DA
:101BB0003109A9F71BC021503109C1F086B3842334
:101BC000D1F75091F40010E0252F30E086B3852343
:101BD000E9F786B3842359F486B390E08095909515
:101BE00082239323892BC1F71F5FF0CF10E07894F5
:101BF000FADA173051F0193009F04BC09091FA0120
:101C00008091F901892B8093FA011091F901110F4C
:101C10001093F901A0906000B09061008091F701ED
:101C20009091F801A816B90640F08091F60188233A
:101C300021F06AE070E083E072DB111131C0609145
:101C4000FA01C50101969093610080936000C5017F
:101C50003FD18091FA018A3089F46FEF8091600062
:101C60009091610035D18091F601811104C0F0920C
:101C70006100E09260001092F60105C08091F601CB
:101C80008F5F8093F6011092FA0181E08093F90151
:101C900007C01092FA0181E08093F9011092F601D9
:101CA0006FE070E080E090E061DA81DCD82E2FEF09
:101CB000821709F4FEC0E82FEC258FE38E0F8C30DD
:101CC00008F0DEC0EF7009F4DBC0E13009F056C067
:101CD00083E1EAEBF0E0DE01119601900D928A9526
:101CE000E1F7BE016F5F7F4F80E098E06EDB8827F1
:101CF0001A8610E2188722E32F83BE016F5F7F4FA1
:101D00009A5F63DB6CE770E060DB8827188723E36A
:101D10002F83BE016F5F7F4F9A5F57DB62E870E0F1
:101D200054DB88276AE870E09A5F4FDB8C0180E023
:101D300090E0C6D0863010F490E002C080E090E0E1
:101D400063E070E0D3D0BC016E597F4FC8013DDB2A
:101D500063E970E03ADB88276FEA70E09A5F35DB71
:101D600002E610E061E970E030DBB8012EDB0D5FC8
:101D70001F4F40E004371407A9F782C0E43008F091
:101D80007FC0F0E0EE0FFF1FEE0FFF1FE459FF4F83
:101D90000190F081E02D309709F454C09F012F5F2E
:101DA0003F4FE4914E2F50E0F9016491942F882722
:101DB000860F911D5901F2E0AF0EB11CF901319669
:101DC000249130E02115310511F420E031E0A6EF37
:101DD000B0E060E070E0F501E60FF71FE491ED93ED
:101DE0006F5F7F4F62177307B1F7A60EB71E9B0197
:101DF000280F311D2130314008F042C0AFDA950183
:101E00002F5F3F4FF501449150E04115510509F016
:101E1000CBCFF90104913196E49110E0102F002707
:101E20000E0F111D0115110559F1D8D9F89487E647
:101E30008093FC0146EE51E0B80180E02FDA7894FF
:101E4000D2D91EC001E010E0C8013AD0982F8F3FD0
:101E5000B9F061E070E09C8B62DA9C899A3029F0DD
:101E600064E170E080E090E004C066E470E080E04F
:101E700090E07CD90F5F1F4F0115F2E01F0721F79B
:101E80008D2D8C259FE3980F9C3010F48F7031F4CA
:101E9000A5D9F8948D2DD8D97894A5D92FEFD2163D
:101EA00041F06FE070E080E090E060D980DBD82EF8
:101EB000E7CF80E090E0892B09F469CEA1D065CE10
:101EC000E199FECF9FBB8EBBE09A99278DB3089511
:101ED000262FE199FECF1CBA9FBB8EBB2DBB0FB640
:101EE000F894E29AE19A0FBE0196089500245527CE
:101EF00004C0080E591F880F991F009729F0769586
:101F00006795B8F37105B9F7802D952F0895F8946A
:021F1000FFCF01
:101F120001005553004742004445004652004954CF
:101F2200004553001E007C000000820042415349DC
:101F320043002D53415645442D004B65796D617028
:101F42003A200020284368616E67652077697468CB
:101F5200204374726C2D416C742D467878290041AF
:101F62007661696C61626C653A004374726C2D46ED
:0E1F7200312020546869732068656C7000008F
:00000001FF
